{
  "contractName": "AccessControl",
  "abi": [
    {
      "inputs": [
        {
          "name": "_registry",
          "type": "address"
        }
      ],
      "payable": false,
      "stateMutability": "nonpayable",
      "type": "constructor"
    },
    {
      "constant": false,
      "inputs": [
        {
          "name": "_switch",
          "type": "bool"
        }
      ],
      "name": "killSwitch",
      "outputs": [],
      "payable": false,
      "stateMutability": "nonpayable",
      "type": "function"
    }
  ],
  "bytecode": "0x608060405260016000806101000a81548160ff02191690831515021790555034801561002a57600080fd5b506040516020806102628339810180604052602081101561004a57600080fd5b810190808051906020019092919050505080600060016101000a81548173ffffffffffffffffffffffffffffffffffffffff021916908373ffffffffffffffffffffffffffffffffffffffff160217905550506101b6806100ac6000396000f3fe608060405260043610610041576000357c0100000000000000000000000000000000000000000000000000000000900463ffffffff16806375283a0814610046575b600080fd5b34801561005257600080fd5b506100816004803603602081101561006957600080fd5b81019080803515159060200190929190505050610083565b005b600060019054906101000a900473ffffffffffffffffffffffffffffffffffffffff1673ffffffffffffffffffffffffffffffffffffffff163373ffffffffffffffffffffffffffffffffffffffff1614151561016e576040517f08c379a00000000000000000000000000000000000000000000000000000000081526004018080602001828103825260248152602001807f46756e6374696f6e616c697479207265737472696374656420746f207265676981526020017f737472790000000000000000000000000000000000000000000000000000000081525060400191505060405180910390fd5b806000806101000a81548160ff0219169083151502179055505056fea165627a7a723058203efe691403a615679fc09ef9f1ff52496dce39e1f304b52998b6b457db0b197e0029",
  "source": "pragma solidity = 0.5.0;\r\n\r\nimport \"./IAccessControl.sol\";\r\nimport \"../Registry/IRegistry.sol\";\r\n\r\n/**\r\n  * @dev An interface for the access control contract\r\n  * @author @vonnie610 (GitHub)\r\n  */\r\ncontract AccessControl is IAccessControl {\r\n\r\n    bool private isAlive = true;\r\n    IRegistry private _registryContract;\r\n\r\n    constructor(address _registry) public {\r\n        _registryContract = IRegistry(_registry);\r\n    }\r\n    \r\n    /**\r\n      * @dev Only allows the register to call this function. \r\n      */\r\n    modifier onlyRegistry() {\r\n        require(\r\n            msg.sender == address(_registryContract), \r\n            \"Functionality restricted to registry\"\r\n        );\r\n        _;\r\n    }\r\n\r\n    /**\r\n      * @dev Ensures that this contracts functionality is only accessible when\r\n      *      the contract is alive.\r\n      */\r\n    modifier onlyAlive() {\r\n        require(isAlive, \"This contract has been killed\");\r\n        _;\r\n    }\r\n\r\n    /**\r\n      * @dev Allows the registry to hault all of the access controls\r\n      *         functionality\r\n      * @notice The bool _switch means that this hault is reversable. This \r\n      *         function must be called in the admin contract, which will call\r\n      *         the registry which will call this function. This was done for \r\n      *         upgradability.\r\n      */\r\n    function killSwitch(bool _switch) external onlyRegistry() {\r\n        isAlive = _switch;\r\n    }\r\n}",
  "sourcePath": "C:/Users/Veronica Coutts/Desktop/Desktop/Work/Ribbon/projects/IncentivesAlpha/Blockchain/contracts/AccessControl/AccessControl.sol",
  "compiler": {
    "name": "solc",
    "version": "0.5.0+commit.1d4f565a.Emscripten.clang"
  },
  "schemaVersion": "3.0.11",
  "updatedAt": "2019-08-13T16:43:50.089Z",
  "devdoc": {
    "author": "@vonnie610 (GitHub)\r",
    "details": "An interface for the access control contract\r",
    "methods": {
      "killSwitch(bool)": {
        "details": "Allows the registry to hault all of the access controls\r        functionality\r"
      }
    }
  },
  "userdoc": {
    "methods": {
      "killSwitch(bool)": {
        "notice": "The bool _switch means that this hault is reversable. This \r        function must be called in the admin contract, which will call\r        the registry which will call this function. This was done for \r        upgradability.\r"
      }
    }
  }
}