{
  "contractName": "Admin",
  "abi": [
    {
      "constant": false,
      "inputs": [],
      "name": "renounceWhitelistAdmin",
      "outputs": [],
      "payable": false,
      "stateMutability": "nonpayable",
      "type": "function"
    },
    {
      "constant": false,
      "inputs": [
        {
          "name": "account",
          "type": "address"
        }
      ],
      "name": "addWhitelistAdmin",
      "outputs": [],
      "payable": false,
      "stateMutability": "nonpayable",
      "type": "function"
    },
    {
      "constant": true,
      "inputs": [
        {
          "name": "account",
          "type": "address"
        }
      ],
      "name": "isWhitelistAdmin",
      "outputs": [
        {
          "name": "",
          "type": "bool"
        }
      ],
      "payable": false,
      "stateMutability": "view",
      "type": "function"
    },
    {
      "anonymous": false,
      "inputs": [
        {
          "indexed": true,
          "name": "account",
          "type": "address"
        }
      ],
      "name": "WhitelistAdminAdded",
      "type": "event"
    },
    {
      "anonymous": false,
      "inputs": [
        {
          "indexed": true,
          "name": "account",
          "type": "address"
        }
      ],
      "name": "WhitelistAdminRemoved",
      "type": "event"
    },
    {
      "constant": false,
      "inputs": [
        {
          "name": "_vault",
          "type": "address"
        },
        {
          "name": "_registry",
          "type": "address"
        }
      ],
      "name": "init",
      "outputs": [],
      "payable": false,
      "stateMutability": "nonpayable",
      "type": "function"
    },
    {
      "constant": false,
      "inputs": [
        {
          "name": "_switch",
          "type": "bool"
        }
      ],
      "name": "systemFreeze",
      "outputs": [],
      "payable": false,
      "stateMutability": "nonpayable",
      "type": "function"
    },
    {
      "constant": false,
      "inputs": [
        {
          "name": "_newAccessContract",
          "type": "address"
        }
      ],
      "name": "updateAccessContract",
      "outputs": [],
      "payable": false,
      "stateMutability": "nonpayable",
      "type": "function"
    }
  ],
  "bytecode": "0x608060405260018060006101000a81548160ff0219169083151502179055506100363361003b640100000000026401000000009004565b6102b1565b61005c8160006100a264010000000002610c84179091906401000000009004565b8073ffffffffffffffffffffffffffffffffffffffff167f22380c05984257a1cb900161c713dd71d39e74820f1aea43bd3f1bdd2096129960405160405180910390a250565b6100bb828261018e640100000000026401000000009004565b151515610130576040517f08c379a000000000000000000000000000000000000000000000000000000000815260040180806020018281038252601f8152602001807f526f6c65733a206163636f756e7420616c72656164792068617320726f6c650081525060200191505060405180910390fd5b60018260000160008373ffffffffffffffffffffffffffffffffffffffff1673ffffffffffffffffffffffffffffffffffffffff16815260200190815260200160002060006101000a81548160ff0219169083151502179055505050565b60008073ffffffffffffffffffffffffffffffffffffffff168273ffffffffffffffffffffffffffffffffffffffff161415151561025a576040517f08c379a00000000000000000000000000000000000000000000000000000000081526004018080602001828103825260228152602001807f526f6c65733a206163636f756e7420697320746865207a65726f20616464726581526020017f737300000000000000000000000000000000000000000000000000000000000081525060400191505060405180910390fd5b8260000160008373ffffffffffffffffffffffffffffffffffffffff1673ffffffffffffffffffffffffffffffffffffffff16815260200190815260200160002060009054906101000a900460ff16905092915050565b610d8d806102c06000396000f3fe608060405260043610610078576000357c0100000000000000000000000000000000000000000000000000000000900463ffffffff16806337d692531461007d57806340a9f71f146100ce5780634c5a628c1461010b5780637362d9c814610122578063bb5f747b14610173578063f09a4016146101dc575b600080fd5b34801561008957600080fd5b506100cc600480360360208110156100a057600080fd5b81019080803573ffffffffffffffffffffffffffffffffffffffff16906020019092919050505061024d565b005b3480156100da57600080fd5b50610109600480360360208110156100f157600080fd5b810190808035151590602001909291905050506103c8565b005b34801561011757600080fd5b506101206105e1565b005b34801561012e57600080fd5b506101716004803603602081101561014557600080fd5b81019080803573ffffffffffffffffffffffffffffffffffffffff1690602001909291905050506105ec565b005b34801561017f57600080fd5b506101c26004803603602081101561019657600080fd5b81019080803573ffffffffffffffffffffffffffffffffffffffff16906020019092919050505061069b565b604051808215151515815260200191505060405180910390f35b3480156101e857600080fd5b5061024b600480360360408110156101ff57600080fd5b81019080803573ffffffffffffffffffffffffffffffffffffffff169060200190929190803573ffffffffffffffffffffffffffffffffffffffff1690602001909291905050506106b8565b005b6102563361069b565b15156102f0576040517f08c379a00000000000000000000000000000000000000000000000000000000081526004018080602001828103825260408152602001807f57686974656c69737441646d696e526f6c653a2063616c6c657220646f65732081526020017f6e6f742068617665207468652057686974656c69737441646d696e20726f6c6581525060400191505060405180910390fd5b600260009054906101000a900473ffffffffffffffffffffffffffffffffffffffff1673ffffffffffffffffffffffffffffffffffffffff1663f89488db826040518263ffffffff167c0100000000000000000000000000000000000000000000000000000000028152600401808273ffffffffffffffffffffffffffffffffffffffff1673ffffffffffffffffffffffffffffffffffffffff168152602001915050600060405180830381600087803b1580156103ad57600080fd5b505af11580156103c1573d6000803e3d6000fd5b5050505050565b6103d13361069b565b151561046b576040517f08c379a00000000000000000000000000000000000000000000000000000000081526004018080602001828103825260408152602001807f57686974656c69737441646d696e526f6c653a2063616c6c657220646f65732081526020017f6e6f742068617665207468652057686974656c69737441646d696e20726f6c6581525060400191505060405180910390fd5b80600160006101000a81548160ff0219169083151502179055506001809054906101000a900473ffffffffffffffffffffffffffffffffffffffff1673ffffffffffffffffffffffffffffffffffffffff16631e2c74f6826040518263ffffffff167c01000000000000000000000000000000000000000000000000000000000281526004018082151515158152602001915050600060405180830381600087803b15801561051957600080fd5b505af115801561052d573d6000803e3d6000fd5b50505050600260009054906101000a900473ffffffffffffffffffffffffffffffffffffffff1673ffffffffffffffffffffffffffffffffffffffff16631e2c74f6826040518263ffffffff167c01000000000000000000000000000000000000000000000000000000000281526004018082151515158152602001915050600060405180830381600087803b1580156105c657600080fd5b505af11580156105da573d6000803e3d6000fd5b5050505050565b6105ea336109ab565b565b6105f53361069b565b151561068f576040517f08c379a00000000000000000000000000000000000000000000000000000000081526004018080602001828103825260408152602001807f57686974656c69737441646d696e526f6c653a2063616c6c657220646f65732081526020017f6e6f742068617665207468652057686974656c69737441646d696e20726f6c6581525060400191505060405180910390fd5b61069881610a05565b50565b60006106b1826000610a5f90919063ffffffff16565b9050919050565b6106c13361069b565b151561075b576040517f08c379a00000000000000000000000000000000000000000000000000000000081526004018080602001828103825260408152602001807f57686974656c69737441646d696e526f6c653a2063616c6c657220646f65732081526020017f6e6f742068617665207468652057686974656c69737441646d696e20726f6c6581525060400191505060405180910390fd5b816001806101000a81548173ffffffffffffffffffffffffffffffffffffffff021916908373ffffffffffffffffffffffffffffffffffffffff1602179055506001809054906101000a900473ffffffffffffffffffffffffffffffffffffffff1673ffffffffffffffffffffffffffffffffffffffff1663a91ee0dc826040518263ffffffff167c0100000000000000000000000000000000000000000000000000000000028152600401808273ffffffffffffffffffffffffffffffffffffffff1673ffffffffffffffffffffffffffffffffffffffff168152602001915050600060405180830381600087803b15801561085757600080fd5b505af115801561086b573d6000803e3d6000fd5b50505050600260009054906101000a900473ffffffffffffffffffffffffffffffffffffffff16600260006101000a81548173ffffffffffffffffffffffffffffffffffffffff021916908373ffffffffffffffffffffffffffffffffffffffff160217905550600260009054906101000a900473ffffffffffffffffffffffffffffffffffffffff1673ffffffffffffffffffffffffffffffffffffffff16636817031b836040518263ffffffff167c0100000000000000000000000000000000000000000000000000000000028152600401808273ffffffffffffffffffffffffffffffffffffffff1673ffffffffffffffffffffffffffffffffffffffff168152602001915050600060405180830381600087803b15801561098f57600080fd5b505af11580156109a3573d6000803e3d6000fd5b505050505050565b6109bf816000610b8290919063ffffffff16565b8073ffffffffffffffffffffffffffffffffffffffff167f0a8eb35e5ca14b3d6f28e4abf2f128dbab231a58b56e89beb5d636115001e16560405160405180910390a250565b610a19816000610c8490919063ffffffff16565b8073ffffffffffffffffffffffffffffffffffffffff167f22380c05984257a1cb900161c713dd71d39e74820f1aea43bd3f1bdd2096129960405160405180910390a250565b60008073ffffffffffffffffffffffffffffffffffffffff168273ffffffffffffffffffffffffffffffffffffffff1614151515610b2b576040517f08c379a00000000000000000000000000000000000000000000000000000000081526004018080602001828103825260228152602001807f526f6c65733a206163636f756e7420697320746865207a65726f20616464726581526020017f737300000000000000000000000000000000000000000000000000000000000081525060400191505060405180910390fd5b8260000160008373ffffffffffffffffffffffffffffffffffffffff1673ffffffffffffffffffffffffffffffffffffffff16815260200190815260200160002060009054906101000a900460ff16905092915050565b610b8c8282610a5f565b1515610c26576040517f08c379a00000000000000000000000000000000000000000000000000000000081526004018080602001828103825260218152602001807f526f6c65733a206163636f756e7420646f6573206e6f74206861766520726f6c81526020017f650000000000000000000000000000000000000000000000000000000000000081525060400191505060405180910390fd5b60008260000160008373ffffffffffffffffffffffffffffffffffffffff1673ffffffffffffffffffffffffffffffffffffffff16815260200190815260200160002060006101000a81548160ff0219169083151502179055505050565b610c8e8282610a5f565b151515610d03576040517f08c379a000000000000000000000000000000000000000000000000000000000815260040180806020018281038252601f8152602001807f526f6c65733a206163636f756e7420616c72656164792068617320726f6c650081525060200191505060405180910390fd5b60018260000160008373ffffffffffffffffffffffffffffffffffffffff1673ffffffffffffffffffffffffffffffffffffffff16815260200190815260200160002060006101000a81548160ff021916908315150217905550505056fea165627a7a723058208691bd909c79d32812e7bf4fe218ecb5e8d3ae8a3e75f169c0371189ea32c8d90029",
  "source": "pragma solidity = 0.5.0;\r\n\r\nimport \"./WhitelistAdminRole.sol\";\r\nimport \"./IAdmin.sol\";\r\nimport \"../Vault/IFundingVault.sol\";\r\nimport \"../Registry/IRegistry.sol\";\r\n\r\n/**\r\n  * @dev The Admin contract which controls the contract ecosystem.\r\n  * @author @vonnie610 (GitHub)\r\n  */\r\ncontract Admin is WhitelistAdminRole, IAdmin {\r\n    // Keeps track of system liveness\r\n    bool private isAlive = true;\r\n    // A contract instance of the vault\r\n    IFundingVault private _fundingVaultContract;\r\n    // A contract instance of the registry\r\n    IRegistry private _registryContract;\r\n\r\n    /**\r\n      * @dev Sets up the addresses for the vault and registry.\r\n      * @notice This allows the admin to act as admin over these contracts.\r\n      */\r\n    function init(address _vault, address _registry) \r\n        public\r\n        onlyWhitelistAdmin()\r\n    {\r\n        _fundingVaultContract = IFundingVault(_vault);\r\n        // Sends the vault the address of the registry\r\n        _fundingVaultContract.setRegistry(_registry);\r\n        _registryContract = IRegistry(_registryContract);\r\n        // Sends the registry the address of the vault\r\n        _registryContract.setVault(_vault);\r\n    }\r\n\r\n    /**\r\n      * @dev This function allows an admin to freeze the vault and the active\r\n      *      access control contract, as well as disabling payouts on the \r\n      *      registry & vault.\r\n      */\r\n    function systemFreeze(bool _switch) public onlyWhitelistAdmin() {\r\n        isAlive = _switch;\r\n        _fundingVaultContract.kill(_switch);\r\n        _registryContract.kill(_switch);\r\n    }\r\n\r\n    /**\r\n      * @dev Allows an admin to update the contract used for access control\r\n      *      and fund rate limiting.\r\n      */\r\n    function updateAccessContract(address _newAccessContract) \r\n        public \r\n        onlyWhitelistAdmin()\r\n    {\r\n        _registryContract.updateAccessControl(_newAccessContract);\r\n    }\r\n}",
  "sourcePath": "C:/Users/Veronica Coutts/Desktop/Desktop/Work/Ribbon/projects/IncentivesAlpha/Blockchain/contracts/Admin/Admin.sol",
  "compiler": {
    "name": "solc",
    "version": "0.5.0+commit.1d4f565a.Emscripten.clang"
  },
  "schemaVersion": "3.0.11",
  "updatedAt": "2019-08-13T16:43:50.285Z",
  "devdoc": {
    "author": "@vonnie610 (GitHub)\r",
    "details": "The Admin contract which controls the contract ecosystem.\r",
    "methods": {
      "init(address,address)": {
        "details": "Sets up the addresses for the vault and registry.\r"
      },
      "systemFreeze(bool)": {
        "details": "This function allows an admin to freeze the vault and the active\r     access control contract, as well as disabling payouts on the \r     registry & vault.\r"
      },
      "updateAccessContract(address)": {
        "details": "Allows an admin to update the contract used for access control\r     and fund rate limiting.\r"
      }
    }
  },
  "userdoc": {
    "methods": {
      "init(address,address)": {
        "notice": "This allows the admin to act as admin over these contracts.\r"
      }
    }
  }
}