{
  "contractName": "FundingVault",
  "abi": [
    {
      "inputs": [
        {
          "name": "_admin",
          "type": "address"
        },
        {
          "name": "_collateral",
          "type": "address"
        }
      ],
      "payable": false,
      "stateMutability": "nonpayable",
      "type": "constructor"
    },
    {
      "constant": false,
      "inputs": [
        {
          "name": "_registry",
          "type": "address"
        }
      ],
      "name": "setRegistry",
      "outputs": [],
      "payable": false,
      "stateMutability": "nonpayable",
      "type": "function"
    },
    {
      "constant": false,
      "inputs": [
        {
          "name": "_switch",
          "type": "bool"
        }
      ],
      "name": "kill",
      "outputs": [],
      "payable": false,
      "stateMutability": "nonpayable",
      "type": "function"
    }
  ],
  "bytecode": "0x608060405234801561001057600080fd5b506040516040806104038339810180604052604081101561003057600080fd5b810190808051906020019092919080519060200190929190505050816000806101000a81548173ffffffffffffffffffffffffffffffffffffffff021916908373ffffffffffffffffffffffffffffffffffffffff16021790555080600260006101000a81548173ffffffffffffffffffffffffffffffffffffffff021916908373ffffffffffffffffffffffffffffffffffffffff1602179055505050610326806100dd6000396000f3fe60806040526004361061004c576000357c0100000000000000000000000000000000000000000000000000000000900463ffffffff1680631e2c74f614610051578063a91ee0dc1461008e575b600080fd5b34801561005d57600080fd5b5061008c6004803603602081101561007457600080fd5b810190808035151590602001909291905050506100df565b005b34801561009a57600080fd5b506100dd600480360360208110156100b157600080fd5b81019080803573ffffffffffffffffffffffffffffffffffffffff1690602001909291905050506101cc565b005b6000809054906101000a900473ffffffffffffffffffffffffffffffffffffffff1673ffffffffffffffffffffffffffffffffffffffff163373ffffffffffffffffffffffffffffffffffffffff161415156101c9576040517f08c379a00000000000000000000000000000000000000000000000000000000081526004018080602001828103825260338152602001807f546869732066756e6374696f6e616c697479206973207265737472696374656481526020017f20746f2061646d696e206164647265737365730000000000000000000000000081525060400191505060405180910390fd5b50565b6000809054906101000a900473ffffffffffffffffffffffffffffffffffffffff1673ffffffffffffffffffffffffffffffffffffffff163373ffffffffffffffffffffffffffffffffffffffff161415156102b6576040517f08c379a00000000000000000000000000000000000000000000000000000000081526004018080602001828103825260338152602001807f546869732066756e6374696f6e616c697479206973207265737472696374656481526020017f20746f2061646d696e206164647265737365730000000000000000000000000081525060400191505060405180910390fd5b80600160006101000a81548173ffffffffffffffffffffffffffffffffffffffff021916908373ffffffffffffffffffffffffffffffffffffffff1602179055505056fea165627a7a72305820fb0a6c8cd665820d52c9c198a25c8fc9d1832fb89dedda71758b193319fd64bc0029",
  "source": "pragma solidity = 0.5.0;\r\n\r\nimport \"./IERC20.sol\";\r\nimport \"../Registry/IRegistry.sol\";\r\nimport \"../Admin/IAdmin.sol\";\r\nimport \"./IFundingVault.sol\";\r\n\r\ncontract FundingVault is IFundingVault {\r\n    // The live instance of the admin contract\r\n    IAdmin private _adminContract;\r\n    // The live instance of the registry contract\r\n    IRegistry private _registryContract;\r\n    // The ERC20 colalteral token \r\n    IERC20 private _collateralContract;\r\n\r\n    /**\r\n      * @dev Sets the address of the admin contract and the collateral\r\n      */\r\n    constructor(address _admin, address _collateral) public {\r\n        _adminContract = IAdmin(_admin);\r\n        _collateralContract = IERC20(_collateral);\r\n    }\r\n\r\n    /**\r\n      * @dev Ensures that only the admin contract/admin can use functions\r\n      */\r\n    modifier onlyAdmin() { \r\n        require(\r\n            // _adminContract.isWhitelistAdmin(msg.sender) ||\r\n            msg.sender == address(_adminContract),\r\n            \"This functionality is restricted to admin addresses\"\r\n        );\r\n        _;\r\n    }\r\n\r\n    /**\r\n      * @dev This allows admin addresses/contract to update/set the address\r\n      *      of the vault contract\r\n      */\r\n    function setRegistry(address _registry) external onlyAdmin() {\r\n        _registryContract = IRegistry(_registry);\r\n    }\r\n\r\n    /** \r\n      * @dev Allows the admin contract/address to hault payouts & freeze funds\r\n      */\r\n    function kill(bool _switch) external onlyAdmin() {\r\n        // TODO: disable payouts,\r\n        //          Send funding to admin contract/address?\r\n    }\r\n}",
  "sourcePath": "C:/Users/Veronica Coutts/Desktop/Desktop/Work/Ribbon/projects/IncentivesAlpha/Blockchain/contracts/Vault/FundingVault.sol",
  "compiler": {
    "name": "solc",
    "version": "0.5.0+commit.1d4f565a.Emscripten.clang"
  },
  "schemaVersion": "3.0.11",
  "updatedAt": "2019-08-13T16:43:50.743Z",
  "devdoc": {
    "methods": {
      "constructor": {
        "details": "Sets the address of the admin contract and the collateral\r"
      },
      "kill(bool)": {
        "details": "Allows the admin contract/address to hault payouts & freeze funds\r"
      },
      "setRegistry(address)": {
        "details": "This allows admin addresses/contract to update/set the address\r     of the vault contract\r"
      }
    }
  },
  "userdoc": {
    "methods": {}
  }
}