{
  "contractName": "Admin",
  "abi": [
    {
      "constant": false,
      "inputs": [],
      "name": "renounceWhitelistAdmin",
      "outputs": [],
      "payable": false,
      "stateMutability": "nonpayable",
      "type": "function"
    },
    {
      "constant": false,
      "inputs": [
        {
          "name": "account",
          "type": "address"
        }
      ],
      "name": "addWhitelistAdmin",
      "outputs": [],
      "payable": false,
      "stateMutability": "nonpayable",
      "type": "function"
    },
    {
      "constant": true,
      "inputs": [
        {
          "name": "account",
          "type": "address"
        }
      ],
      "name": "isWhitelistAdmin",
      "outputs": [
        {
          "name": "",
          "type": "bool"
        }
      ],
      "payable": false,
      "stateMutability": "view",
      "type": "function"
    },
    {
      "inputs": [],
      "payable": false,
      "stateMutability": "nonpayable",
      "type": "constructor"
    },
    {
      "anonymous": false,
      "inputs": [
        {
          "indexed": true,
          "name": "account",
          "type": "address"
        }
      ],
      "name": "WhitelistAdminAdded",
      "type": "event"
    },
    {
      "anonymous": false,
      "inputs": [
        {
          "indexed": true,
          "name": "account",
          "type": "address"
        }
      ],
      "name": "WhitelistAdminRemoved",
      "type": "event"
    },
    {
      "constant": false,
      "inputs": [
        {
          "name": "_vault",
          "type": "address"
        },
        {
          "name": "_registry",
          "type": "address"
        }
      ],
      "name": "init",
      "outputs": [],
      "payable": false,
      "stateMutability": "nonpayable",
      "type": "function"
    },
    {
      "constant": false,
      "inputs": [
        {
          "name": "_user",
          "type": "address"
        },
        {
          "name": "_userRole",
          "type": "uint8"
        }
      ],
      "name": "addUserInRegistry",
      "outputs": [],
      "payable": false,
      "stateMutability": "nonpayable",
      "type": "function"
    },
    {
      "constant": false,
      "inputs": [
        {
          "name": "_user",
          "type": "address"
        }
      ],
      "name": "removeUserFromRegistry",
      "outputs": [],
      "payable": false,
      "stateMutability": "nonpayable",
      "type": "function"
    },
    {
      "constant": false,
      "inputs": [
        {
          "name": "_user",
          "type": "address"
        },
        {
          "name": "_newUserRole",
          "type": "uint8"
        }
      ],
      "name": "updateUserInRegistry",
      "outputs": [],
      "payable": false,
      "stateMutability": "nonpayable",
      "type": "function"
    },
    {
      "constant": false,
      "inputs": [],
      "name": "kill",
      "outputs": [],
      "payable": false,
      "stateMutability": "nonpayable",
      "type": "function"
    }
  ],
  "bytecode": "0x608060405234801561001057600080fd5b50610023336001600160e01b0361002816565b61019c565b61004081600061007760201b6107161790919060201c565b6040516001600160a01b038216907f22380c05984257a1cb900161c713dd71d39e74820f1aea43bd3f1bdd2096129990600090a250565b61008a82826001600160e01b0361011b16565b156100f657604080517f08c379a000000000000000000000000000000000000000000000000000000000815260206004820152601f60248201527f526f6c65733a206163636f756e7420616c72656164792068617320726f6c6500604482015290519081900360640190fd5b6001600160a01b0316600090815260209190915260409020805460ff19166001179055565b60006001600160a01b03821661017c576040517f08c379a00000000000000000000000000000000000000000000000000000000081526004018080602001828103825260228152602001806109fa6022913960400191505060405180910390fd5b506001600160a01b03166000908152602091909152604090205460ff1690565b61084f806101ab6000396000f3fe608060405234801561001057600080fd5b50600436106100885760003560e01c80637362d9c81161005b5780637362d9c8146100fd5780638f5e82fd14610123578063bb5f747b14610149578063f09a40161461018357610088565b8063078caae31461008d5780633b64244d146100be57806341c0e1b5146100ed5780634c5a628c146100f5575b600080fd5b6100bc600480360360408110156100a357600080fd5b5080356001600160a01b0316906020013560ff166101b1565b005b6100bc600480360360408110156100d457600080fd5b5080356001600160a01b0316906020013560ff16610268565b6100bc610303565b6100bc610419565b6100bc6004803603602081101561011357600080fd5b50356001600160a01b0316610424565b6100bc6004803603602081101561013957600080fd5b50356001600160a01b0316610474565b61016f6004803603602081101561015f57600080fd5b50356001600160a01b0316610521565b604080519115158252519081900360200190f35b6100bc6004803603604081101561019957600080fd5b506001600160a01b0381358116916020013516610539565b6101ba33610521565b6101f55760405162461bcd60e51b81526004018080602001828103825260408152602001806107db6040913960400191505060405180910390fd5b60025460408051631c105a0b60e21b81526001600160a01b03858116600483015260ff8516602483015291519190921691637041682c91604480830192600092919082900301818387803b15801561024c57600080fd5b505af1158015610260573d6000803e3d6000fd5b505050505050565b61027133610521565b6102ac5760405162461bcd60e51b81526004018080602001828103825260408152602001806107db6040913960400191505060405180910390fd5b60025460408051639c3eead960e01b81526001600160a01b03858116600483015260ff8516602483015291519190921691639c3eead991604480830192600092919082900301818387803b15801561024c57600080fd5b61030c33610521565b6103475760405162461bcd60e51b81526004018080602001828103825260408152602001806107db6040913960400191505060405180910390fd5b600260009054906101000a90046001600160a01b03166001600160a01b03166341c0e1b56040518163ffffffff1660e01b8152600401600060405180830381600087803b15801561039757600080fd5b505af11580156103ab573d6000803e3d6000fd5b50505050600160009054906101000a90046001600160a01b03166001600160a01b03166341c0e1b56040518163ffffffff1660e01b8152600401600060405180830381600087803b1580156103ff57600080fd5b505af1158015610413573d6000803e3d6000fd5b50505050565b610422336105b8565b565b61042d33610521565b6104685760405162461bcd60e51b81526004018080602001828103825260408152602001806107db6040913960400191505060405180910390fd5b61047181610600565b50565b61047d33610521565b6104b85760405162461bcd60e51b81526004018080602001828103825260408152602001806107db6040913960400191505060405180910390fd5b6002546040805163130aea3160e31b81526001600160a01b03848116600483015291519190921691639857518891602480830192600092919082900301818387803b15801561050657600080fd5b505af115801561051a573d6000803e3d6000fd5b5050505050565b6000610533818363ffffffff61064816565b92915050565b61054233610521565b61057d5760405162461bcd60e51b81526004018080602001828103825260408152602001806107db6040913960400191505060405180910390fd5b600180546001600160a01b0393841673ffffffffffffffffffffffffffffffffffffffff199182161790915560028054929093169116179055565b6105c960008263ffffffff6106af16565b6040516001600160a01b038216907f0a8eb35e5ca14b3d6f28e4abf2f128dbab231a58b56e89beb5d636115001e16590600090a250565b61061160008263ffffffff61071616565b6040516001600160a01b038216907f22380c05984257a1cb900161c713dd71d39e74820f1aea43bd3f1bdd2096129990600090a250565b60006001600160a01b03821661068f5760405162461bcd60e51b81526004018080602001828103825260228152602001806107b96022913960400191505060405180910390fd5b506001600160a01b03166000908152602091909152604090205460ff1690565b6106b98282610648565b6106f45760405162461bcd60e51b81526004018080602001828103825260218152602001806107986021913960400191505060405180910390fd5b6001600160a01b0316600090815260209190915260409020805460ff19169055565b6107208282610648565b15610772576040805162461bcd60e51b815260206004820152601f60248201527f526f6c65733a206163636f756e7420616c72656164792068617320726f6c6500604482015290519081900360640190fd5b6001600160a01b0316600090815260209190915260409020805460ff1916600117905556fe526f6c65733a206163636f756e7420646f6573206e6f74206861766520726f6c65526f6c65733a206163636f756e7420697320746865207a65726f206164647265737357686974656c69737441646d696e526f6c653a2063616c6c657220646f6573206e6f742068617665207468652057686974656c69737441646d696e20726f6c65a265627a7a72305820b0cfb21dab57c3aa1e9e26e21bd1e478bdec5cc18b4d046dd34e2ca2ddedf5a064736f6c634300050a0032526f6c65733a206163636f756e7420697320746865207a65726f2061646472657373",
  "source": "pragma solidity 0.5.10;\n\nimport { IVault } from \"../Vault/IVault.sol\";\nimport { IRegistry } from \"../Registry/IRegistry.sol\";\nimport { WhitelistAdminRole } from \"../Support/WhitelistAdminRole.sol\";\nimport { SafeMath } from \"../Support/math/SafeMath.sol\";\nimport { IAdmin } from \"./IAdmin.sol\";\n\ncontract Admin is IAdmin, WhitelistAdminRole {\n    // The contract instance of the vault\n    IVault internal _vaultInstance;\n    // The contract instance of the registry\n    IRegistry internal _registryInstance;\n\n    constructor() public WhitelistAdminRole() {\n\n    }\n\n    function init(\n        address _vault,\n        address _registry\n    )\n        external\n        onlyWhitelistAdmin()\n    {\n        _vaultInstance = IVault(_vault);\n        _registryInstance = IRegistry(_registry);\n    }\n\n    /**\n      * @notice Allows the admin contract to add a user as any user role.\n      */\n    function addUserInRegistry(\n        address _user,\n        uint8 _userRole\n    )\n        external\n        onlyWhitelistAdmin()\n    {\n        _registryInstance.addUser(_user, _userRole);\n    }\n\n    /**\n      * @notice Allows the admin contract to remove a user.\n      */\n    function removeUserFromRegistry(address _user) external onlyWhitelistAdmin() {\n        _registryInstance.removeUser(_user);\n    }\n\n    /**\n      * @notice Allows the admin contract to update the role of the user.\n      */\n    function updateUserInRegistry(\n        address _user,\n        uint8 _newUserRole\n    )\n        external\n        onlyWhitelistAdmin()\n    {\n        _registryInstance.updateUser(_user, _newUserRole);\n    }\n\n    /**\n      * @notice Allows the admin of the admin contract to kill the eco-system.\n      *         This will send all remaining collateral in the vault to the\n      *         admin as well as burning all the tokens. This function will kill\n      *         the vault and the registry.\n      */\n    function kill() external onlyWhitelistAdmin() {\n        _registryInstance.kill();\n        _vaultInstance.kill();\n    }\n}\n",
  "sourcePath": "/Users/chris/Projects/IncentivesAlpha/Blockchain/contracts/AdminDAO/Admin.sol",
  "compiler": {
    "name": "solc",
    "version": "0.5.10+commit.5a6ea5b1.Emscripten.clang",
    "optimizer": true,
    "runs": 500
  },
  "schemaVersion": "2.2.0",
  "updatedAt": "2019-10-17T09:32:15.332Z"
}