{
  "contractName": "Admin",
  "abi": [
    {
      "constant": false,
      "inputs": [],
      "name": "renounceWhitelistAdmin",
      "outputs": [],
      "payable": false,
      "stateMutability": "nonpayable",
      "type": "function"
    },
    {
      "constant": false,
      "inputs": [
        {
          "name": "account",
          "type": "address"
        }
      ],
      "name": "addWhitelistAdmin",
      "outputs": [],
      "payable": false,
      "stateMutability": "nonpayable",
      "type": "function"
    },
    {
      "constant": true,
      "inputs": [
        {
          "name": "account",
          "type": "address"
        }
      ],
      "name": "isWhitelistAdmin",
      "outputs": [
        {
          "name": "",
          "type": "bool"
        }
      ],
      "payable": false,
      "stateMutability": "view",
      "type": "function"
    },
    {
      "inputs": [],
      "payable": false,
      "stateMutability": "nonpayable",
      "type": "constructor"
    },
    {
      "anonymous": false,
      "inputs": [
        {
          "indexed": true,
          "name": "account",
          "type": "address"
        }
      ],
      "name": "WhitelistAdminAdded",
      "type": "event"
    },
    {
      "anonymous": false,
      "inputs": [
        {
          "indexed": true,
          "name": "account",
          "type": "address"
        }
      ],
      "name": "WhitelistAdminRemoved",
      "type": "event"
    },
    {
      "constant": false,
      "inputs": [
        {
          "name": "_vault",
          "type": "address"
        },
        {
          "name": "_registry",
          "type": "address"
        }
      ],
      "name": "init",
      "outputs": [],
      "payable": false,
      "stateMutability": "nonpayable",
      "type": "function"
    },
    {
      "constant": false,
      "inputs": [],
      "name": "donateFunds",
      "outputs": [],
      "payable": true,
      "stateMutability": "payable",
      "type": "function"
    },
    {
      "constant": false,
      "inputs": [
        {
          "name": "_user",
          "type": "address"
        },
        {
          "name": "_userRole",
          "type": "uint8"
        }
      ],
      "name": "addUser",
      "outputs": [],
      "payable": false,
      "stateMutability": "nonpayable",
      "type": "function"
    },
    {
      "constant": false,
      "inputs": [
        {
          "name": "_user",
          "type": "address"
        }
      ],
      "name": "removeUser",
      "outputs": [],
      "payable": false,
      "stateMutability": "nonpayable",
      "type": "function"
    },
    {
      "constant": false,
      "inputs": [
        {
          "name": "_user",
          "type": "address"
        },
        {
          "name": "_newUserRole",
          "type": "uint8"
        }
      ],
      "name": "updateUser",
      "outputs": [],
      "payable": false,
      "stateMutability": "nonpayable",
      "type": "function"
    },
    {
      "constant": false,
      "inputs": [],
      "name": "kill",
      "outputs": [],
      "payable": false,
      "stateMutability": "nonpayable",
      "type": "function"
    }
  ],
  "bytecode": "0x608060405234801561001057600080fd5b50610023336001600160e01b0361002816565b61019c565b61004081600061007760201b6108161790919060201c565b6040516001600160a01b038216907f22380c05984257a1cb900161c713dd71d39e74820f1aea43bd3f1bdd2096129990600090a250565b61008a82826001600160e01b0361011b16565b156100f657604080517f08c379a000000000000000000000000000000000000000000000000000000000815260206004820152601f60248201527f526f6c65733a206163636f756e7420616c72656164792068617320726f6c6500604482015290519081900360640190fd5b6001600160a01b0316600090815260209190915260409020805460ff19166001179055565b60006001600160a01b03821661017c576040517f08c379a0000000000000000000000000000000000000000000000000000000008152600401808060200182810382526022815260200180610afa6022913960400191505060405180910390fd5b506001600160a01b03166000908152602091909152604090205460ff1690565b61094f806101ab6000396000f3fe6080604052600436106100965760003560e01c80637362d9c8116100695780639c3eead91161004e5780639c3eead914610171578063bb5f747b146101ad578063f09a4016146101f457610096565b80637362d9c81461010b578063985751881461013e57610096565b806341c0e1b51461009b5780634c5a628c146100b25780637041682c146100c75780637150773d14610103575b600080fd5b3480156100a757600080fd5b506100b061022f565b005b3480156100be57600080fd5b506100b06102dd565b3480156100d357600080fd5b506100b0600480360360408110156100ea57600080fd5b5080356001600160a01b0316906020013560ff166102e8565b6100b06103b8565b34801561011757600080fd5b506100b06004803603602081101561012e57600080fd5b50356001600160a01b031661044c565b34801561014a57600080fd5b506100b06004803603602081101561016157600080fd5b50356001600160a01b031661049c565b34801561017d57600080fd5b506100b06004803603604081101561019457600080fd5b5080356001600160a01b0316906020013560ff16610562565b3480156101b957600080fd5b506101e0600480360360208110156101d057600080fd5b50356001600160a01b0316610616565b604080519115158252519081900360200190f35b34801561020057600080fd5b506100b06004803603604081101561021757600080fd5b506001600160a01b038135811691602001351661062e565b61023833610616565b6102735760405162461bcd60e51b81526004018080602001828103825260408152602001806108db6040913960400191505060405180910390fd5b600260009054906101000a90046001600160a01b03166001600160a01b03166341c0e1b56040518163ffffffff1660e01b8152600401600060405180830381600087803b1580156102c357600080fd5b505af11580156102d7573d6000803e3d6000fd5b50505050565b6102e6336106b8565b565b6102f133610616565b61032c5760405162461bcd60e51b81526004018080602001828103825260408152602001806108db6040913960400191505060405180910390fd5b600254604080517f7041682c0000000000000000000000000000000000000000000000000000000081526001600160a01b03858116600483015260ff8516602483015291519190921691637041682c91604480830192600092919082900301818387803b15801561039c57600080fd5b505af11580156103b0573d6000803e3d6000fd5b505050505050565b6103c133610616565b6103fc5760405162461bcd60e51b81526004018080602001828103825260408152602001806108db6040913960400191505060405180910390fd5b600160009054906101000a90046001600160a01b03166001600160a01b0316637150773d6040518163ffffffff1660e01b8152600401600060405180830381600087803b1580156102c357600080fd5b61045533610616565b6104905760405162461bcd60e51b81526004018080602001828103825260408152602001806108db6040913960400191505060405180910390fd5b61049981610700565b50565b6104a533610616565b6104e05760405162461bcd60e51b81526004018080602001828103825260408152602001806108db6040913960400191505060405180910390fd5b600254604080517f985751880000000000000000000000000000000000000000000000000000000081526001600160a01b03848116600483015291519190921691639857518891602480830192600092919082900301818387803b15801561054757600080fd5b505af115801561055b573d6000803e3d6000fd5b5050505050565b61056b33610616565b6105a65760405162461bcd60e51b81526004018080602001828103825260408152602001806108db6040913960400191505060405180910390fd5b600254604080517f9c3eead90000000000000000000000000000000000000000000000000000000081526001600160a01b03858116600483015260ff8516602483015291519190921691639c3eead991604480830192600092919082900301818387803b15801561039c57600080fd5b6000610628818363ffffffff61074816565b92915050565b61063733610616565b6106725760405162461bcd60e51b81526004018080602001828103825260408152602001806108db6040913960400191505060405180910390fd5b600180546001600160a01b039384167fffffffffffffffffffffffff00000000000000000000000000000000000000009182161790915560028054929093169116179055565b6106c960008263ffffffff6107af16565b6040516001600160a01b038216907f0a8eb35e5ca14b3d6f28e4abf2f128dbab231a58b56e89beb5d636115001e16590600090a250565b61071160008263ffffffff61081616565b6040516001600160a01b038216907f22380c05984257a1cb900161c713dd71d39e74820f1aea43bd3f1bdd2096129990600090a250565b60006001600160a01b03821661078f5760405162461bcd60e51b81526004018080602001828103825260228152602001806108b96022913960400191505060405180910390fd5b506001600160a01b03166000908152602091909152604090205460ff1690565b6107b98282610748565b6107f45760405162461bcd60e51b81526004018080602001828103825260218152602001806108986021913960400191505060405180910390fd5b6001600160a01b0316600090815260209190915260409020805460ff19169055565b6108208282610748565b15610872576040805162461bcd60e51b815260206004820152601f60248201527f526f6c65733a206163636f756e7420616c72656164792068617320726f6c6500604482015290519081900360640190fd5b6001600160a01b0316600090815260209190915260409020805460ff1916600117905556fe526f6c65733a206163636f756e7420646f6573206e6f74206861766520726f6c65526f6c65733a206163636f756e7420697320746865207a65726f206164647265737357686974656c69737441646d696e526f6c653a2063616c6c657220646f6573206e6f742068617665207468652057686974656c69737441646d696e20726f6c65a265627a7a723058207fbc8ec6e20e51ead15a59da49a098ee34f4c5450b587d534ecdede86fbb020064736f6c634300050a0032526f6c65733a206163636f756e7420697320746865207a65726f2061646472657373",
  "source": "pragma solidity 0.5.10;\n\nimport { IVault } from \"../Vault/IVault.sol\";\nimport { IRegistry } from \"../Registry/IRegistry.sol\";\nimport { WhitelistAdminRole } from \"../Support/WhitelistAdminRole.sol\";\nimport { SafeMath } from \"../Support/math/SafeMath.sol\";\nimport { IAdmin } from \"./IAdmin.sol\";\n\ncontract Admin is IAdmin, WhitelistAdminRole {\n    // The contract instance of the vault\n    IVault internal _vaultInstance;\n    // The contract instance of the registry\n    IRegistry internal _registryInstance;\n\n    constructor() public WhitelistAdminRole() {\n\n    }\n\n    function init(\n        address _vault,\n        address _registry\n    )\n        external\n        onlyWhitelistAdmin()\n    {\n        _vaultInstance = IVault(_vault);\n        _registryInstance = IRegistry(_registry);\n    }\n\n     /**\n      * @notice Sends funds to the vault.\n      */\n    function donateFunds() external payable onlyWhitelistAdmin() {\n        _vaultInstance.donateFunds();\n    }\n\n    /**\n      * @notice Allows the admin contract to add a user as any user role.\n      */\n    function addUser(\n        address _user,\n        uint8 _userRole\n    )\n        external\n        onlyWhitelistAdmin()\n    {\n        _registryInstance.addUser(_user, _userRole);\n    }\n\n    /**\n      * @notice Allows the admin contract to remove a user.\n      */\n    function removeUser(address _user) external onlyWhitelistAdmin() {\n        _registryInstance.removeUser(_user);\n    }\n\n    /**\n      * @notice Allows the admin contract to update the role of the user.\n      */\n    function updateUser(\n        address _user,\n        uint8 _newUserRole\n    )\n        external\n        onlyWhitelistAdmin()\n    {\n        _registryInstance.updateUser(_user, _newUserRole);\n    }\n\n    /**\n      * @notice Allows the admin of the admin contract to kill the eco-system.\n      *         This will send all remaining collateral in the vault to the\n      *         admin as well as burning all the tokens. This function will kill\n      *         the vault and the registry.\n      */\n    function kill() external onlyWhitelistAdmin() {\n        _registryInstance.kill();\n    }\n}\n",
  "sourcePath": "/Users/chris/Projects/IncentivesAlpha/Blockchain/contracts/AdminDAO/Admin.sol",
  "compiler": {
    "name": "solc",
    "version": "0.5.10+commit.5a6ea5b1.Emscripten.clang",
    "optimizer": true,
    "runs": 999
  },
  "schemaVersion": "2.2.0",
  "updatedAt": "2019-09-26T07:20:15.817Z"
}