{
  "contractName": "Registry",
  "abi": [
    {
      "constant": false,
      "inputs": [],
      "name": "renounceWhitelistAdmin",
      "outputs": [],
      "payable": false,
      "stateMutability": "nonpayable",
      "type": "function"
    },
    {
      "constant": false,
      "inputs": [
        {
          "name": "account",
          "type": "address"
        }
      ],
      "name": "addWhitelistAdmin",
      "outputs": [],
      "payable": false,
      "stateMutability": "nonpayable",
      "type": "function"
    },
    {
      "constant": true,
      "inputs": [
        {
          "name": "account",
          "type": "address"
        }
      ],
      "name": "isWhitelistAdmin",
      "outputs": [
        {
          "name": "",
          "type": "bool"
        }
      ],
      "payable": false,
      "stateMutability": "view",
      "type": "function"
    },
    {
      "inputs": [
        {
          "name": "_vault",
          "type": "address"
        },
        {
          "name": "_admin",
          "type": "address"
        }
      ],
      "payable": false,
      "stateMutability": "nonpayable",
      "type": "constructor"
    },
    {
      "anonymous": false,
      "inputs": [
        {
          "indexed": true,
          "name": "account",
          "type": "address"
        }
      ],
      "name": "WhitelistAdminAdded",
      "type": "event"
    },
    {
      "anonymous": false,
      "inputs": [
        {
          "indexed": true,
          "name": "account",
          "type": "address"
        }
      ],
      "name": "WhitelistAdminRemoved",
      "type": "event"
    },
    {
      "constant": false,
      "inputs": [
        {
          "name": "_user",
          "type": "address"
        },
        {
          "name": "_newUserRole",
          "type": "uint8"
        }
      ],
      "name": "addUser",
      "outputs": [],
      "payable": false,
      "stateMutability": "nonpayable",
      "type": "function"
    },
    {
      "constant": false,
      "inputs": [
        {
          "name": "_user",
          "type": "address"
        }
      ],
      "name": "removeUser",
      "outputs": [],
      "payable": false,
      "stateMutability": "nonpayable",
      "type": "function"
    },
    {
      "constant": false,
      "inputs": [
        {
          "name": "_user",
          "type": "address"
        },
        {
          "name": "_newUserRole",
          "type": "uint8"
        }
      ],
      "name": "updateUser",
      "outputs": [],
      "payable": false,
      "stateMutability": "nonpayable",
      "type": "function"
    },
    {
      "constant": false,
      "inputs": [],
      "name": "kill",
      "outputs": [],
      "payable": false,
      "stateMutability": "nonpayable",
      "type": "function"
    },
    {
      "constant": true,
      "inputs": [
        {
          "name": "_user",
          "type": "address"
        }
      ],
      "name": "verifyPayout",
      "outputs": [
        {
          "name": "",
          "type": "bool"
        }
      ],
      "payable": false,
      "stateMutability": "view",
      "type": "function"
    },
    {
      "constant": true,
      "inputs": [
        {
          "name": "_user",
          "type": "address"
        }
      ],
      "name": "getUserRole",
      "outputs": [
        {
          "name": "",
          "type": "uint8"
        }
      ],
      "payable": false,
      "stateMutability": "view",
      "type": "function"
    },
    {
      "constant": true,
      "inputs": [],
      "name": "isAlive",
      "outputs": [
        {
          "name": "",
          "type": "bool"
        }
      ],
      "payable": false,
      "stateMutability": "view",
      "type": "function"
    }
  ],
  "bytecode": "0x60806040526004805460ff1916600117905534801561001d57600080fd5b50604051610d22380380610d228339818101604052604081101561004057600080fd5b50805160209091015161005b336001600160e01b036100b016565b600180546001600160a01b03199081166001600160a01b0394851617825560028054909116928416929092178255336000908152600360205260408120805460ff191690921790915590549091169052610224565b6100c88160006100ff60201b6108ed1790919060201c565b6040516001600160a01b038216907f22380c05984257a1cb900161c713dd71d39e74820f1aea43bd3f1bdd2096129990600090a250565b61011282826001600160e01b036101a316565b1561017e57604080517f08c379a000000000000000000000000000000000000000000000000000000000815260206004820152601f60248201527f526f6c65733a206163636f756e7420616c72656164792068617320726f6c6500604482015290519081900360640190fd5b6001600160a01b0316600090815260209190915260409020805460ff19166001179055565b60006001600160a01b038216610204576040517f08c379a0000000000000000000000000000000000000000000000000000000008152600401808060200182810382526022815260200180610d006022913960400191505060405180910390fd5b506001600160a01b03166000908152602091909152604090205460ff1690565b610acd806102336000396000f3fe608060405234801561001057600080fd5b50600436106100be5760003560e01c80637041682c11610076578063985751881161005b57806398575188146101a85780639c3eead9146101ce578063bb5f747b146101fd576100be565b80637041682c146101535780637362d9c814610182576100be565b806341c0e1b5116100a757806341c0e1b51461011b5780634c5a628c1461012557806351792bd21461012d576100be565b806327820851146100c35780634136aa35146100ff575b600080fd5b6100e9600480360360208110156100d957600080fd5b50356001600160a01b0316610223565b6040805160ff9092168252519081900360200190f35b610107610241565b604080519115158252519081900360200190f35b61012361024a565b005b61012361029f565b6101076004803603602081101561014357600080fd5b50356001600160a01b03166102aa565b6101236004803603604081101561016957600080fd5b5080356001600160a01b0316906020013560ff166103bb565b6101236004803603602081101561019857600080fd5b50356001600160a01b031661049f565b610123600480360360208110156101be57600080fd5b50356001600160a01b03166104ef565b610123600480360360408110156101e457600080fd5b5080356001600160a01b0316906020013560ff166105c7565b6101076004803603602081101561021357600080fd5b50356001600160a01b03166106f5565b6001600160a01b031660009081526003602052604090205460ff1690565b60045460ff1690565b6002546001600160a01b031633146102935760405162461bcd60e51b815260040180806020018281038252603c81526020018061099d603c913960400191505060405180910390fd5b6004805460ff19169055565b6102a83361070d565b565b6001546000906001600160a01b031633146102f65760405162461bcd60e51b815260040180806020018281038252603c81526020018061099d603c913960400191505060405180910390fd5b60045460ff16610346576040805162461bcd60e51b81526020600482015260166024820152755265676973747279206973206e6f742061637469766560501b604482015290519081900360640190fd5b6001600160a01b03821660009081526003602052604090205460ff166103b3576040805162461bcd60e51b815260206004820152601a60248201527f5265766572742c207573657220726f6c6520696e616374697665000000000000604482015290519081900360640190fd5b506001919050565b60045460ff1661040b576040805162461bcd60e51b81526020600482015260166024820152755265676973747279206973206e6f742061637469766560501b604482015290519081900360640190fd5b3360009081526003602052604090205460ff16600114610472576040805162461bcd60e51b815260206004820152601560248201527f496e636f7272656374207065726d697373696f6e730000000000000000000000604482015290519081900360640190fd5b6001600160a01b03919091166000908152600360205260409020805460ff191660ff909216919091179055565b6104a8336106f5565b6104e35760405162461bcd60e51b8152600401808060200182810382526040815260200180610a1c6040913960400191505060405180910390fd5b6104ec81610755565b50565b60045460ff1661053f576040805162461bcd60e51b81526020600482015260166024820152755265676973747279206973206e6f742061637469766560501b604482015290519081900360640190fd5b3360009081526003602052604090205460ff166001146105a6576040805162461bcd60e51b815260206004820152601560248201527f496e636f7272656374207065726d697373696f6e730000000000000000000000604482015290519081900360640190fd5b6001600160a01b03166000908152600360205260409020805460ff19169055565b60045460ff16610617576040805162461bcd60e51b81526020600482015260166024820152755265676973747279206973206e6f742061637469766560501b604482015290519081900360640190fd5b3360009081526003602052604090205460ff1660021415610695578060ff1660011415801561064a57508060ff16600214155b6106855760405162461bcd60e51b815260040180806020018281038252602e81526020018061096f602e913960400191505060405180910390fd5b61068f828261079d565b506106f1565b3360009081526003602052604090205460ff16600114156106ba5761068f828261079d565b60405162461bcd60e51b815260040180806020018281038252603d815260200180610a5c603d913960400191505060405180910390fd5b5050565b6000610707818363ffffffff61081f16565b92915050565b61071e60008263ffffffff61088616565b6040516001600160a01b038216907f0a8eb35e5ca14b3d6f28e4abf2f128dbab231a58b56e89beb5d636115001e16590600090a250565b61076660008263ffffffff6108ed16565b6040516001600160a01b038216907f22380c05984257a1cb900161c713dd71d39e74820f1aea43bd3f1bdd2096129990600090a250565b60045460009060ff166107f0576040805162461bcd60e51b81526020600482015260166024820152755265676973747279206973206e6f742061637469766560501b604482015290519081900360640190fd5b506001600160a01b03919091166000908152600360205260409020805460ff191660ff92831617908190551690565b60006001600160a01b0382166108665760405162461bcd60e51b81526004018080602001828103825260228152602001806109fa6022913960400191505060405180910390fd5b506001600160a01b03166000908152602091909152604090205460ff1690565b610890828261081f565b6108cb5760405162461bcd60e51b81526004018080602001828103825260218152602001806109d96021913960400191505060405180910390fd5b6001600160a01b0316600090815260209190915260409020805460ff19169055565b6108f7828261081f565b15610949576040805162461bcd60e51b815260206004820152601f60248201527f526f6c65733a206163636f756e7420616c72656164792068617320726f6c6500604482015290519081900360640190fd5b6001600160a01b0316600090815260209190915260409020805460ff1916600117905556fe5065726d697373696f6e2064656e6965642c204348572063616e6e6f74206164642061646d696e206f72204348575065726d697373696f6e2064656e6965642c206f6e6c792061646d696e20636f6e74726163742063616e207573652066756e6374696f6e616c697479526f6c65733a206163636f756e7420646f6573206e6f74206861766520726f6c65526f6c65733a206163636f756e7420697320746865207a65726f206164647265737357686974656c69737441646d696e526f6c653a2063616c6c657220646f6573206e6f742068617665207468652057686974656c69737441646d696e20726f6c655065726d697373696f6e2064656e6965642c206f6e6c792061646d696e20636f6e74726163742026204348572063616e207573652066756e6374696f6ea265627a7a723058208fc755a6386617e7715646b5530a254b796a8d09c5ca6bd092df8654bf075e4964736f6c634300050a0032526f6c65733a206163636f756e7420697320746865207a65726f2061646472657373",
  "source": "pragma solidity 0.5.10;\n\nimport { IVault } from \"../Vault/IVault.sol\";\nimport { IAdmin } from \"../AdminDAO/IAdmin.sol\";\nimport { WhitelistAdminRole } from \"../Support/WhitelistAdminRole.sol\";\nimport { SafeMath } from \"../Support/math/SafeMath.sol\";\nimport { IRegistry } from \"./IRegistry.sol\";\n\ncontract Registry is IRegistry, WhitelistAdminRole {\n    using SafeMath for uint256;\n\n    // The contract instance of the vault contract\n    IVault internal _vaultInstance;\n    // The contract instance of the admin contract\n    IAdmin internal _adminInstance;\n    // The storage of uses and their roles\n    mapping(address => UserInfo) internal _userDetails;\n    // The active state of the registry\n    bool internal _active = true;\n\n    struct UserInfo {\n        uint8 _userRole;\n        // 0 = inactive\n        // 1 = super admin\n        // 2 = admin (CHW)\n        // 3 = patient\n        // 4 = practitoner\n    }\n\n    /**\n      * @notice Sets up the registries variables.\n      */\n    constructor(address _vault, address _admin) public WhitelistAdminRole() {\n        _vaultInstance = IVault(_vault);\n        _adminInstance = IAdmin(_admin);\n        _userDetails[msg.sender]._userRole = 1;\n        _userDetails[address(_adminInstance)]._userRole == 1;\n    }\n\n    modifier onlyAdminContract() {\n        require(\n            msg.sender == address(_adminInstance),\n            \"Permission denied, only admin contract can use functionality\"\n        );\n        _;\n    }\n\n    modifier onlyVaultContract() {\n        require(\n            msg.sender == address(_vaultInstance),\n            \"Permission denied, only admin contract can use functionality\"\n        );\n        _;\n    }\n\n    modifier isActive() {\n        require(_active, \"Registry is not active\");\n        _;\n    }\n\n    /**\n      * @notice Allows the adding of a user as any user role. If the\n      *         `msg.sender` is the admin contract, any user role may be added.\n      *         If the `msg.sender` is a CHW, only patients and practitioners\n      *         may be added.\n      */\n    function addUser(address _user, uint8 _newUserRole) external isActive() {\n        if(_userDetails[msg.sender]._userRole == 2) {\n            // Ensuring the CHW only adds roles it has permission to add\n            require(\n                _newUserRole != 1 && _newUserRole != 2,\n                \"Permission denied, CHW cannot add admin or CHW\"\n            );\n            // Adding the user\n            _addUser(_user, _newUserRole);\n\n        } else if(_userDetails[msg.sender]._userRole == 1) {\n            // Adding the user\n            _addUser(_user, _newUserRole);\n\n        } else {\n            require(\n                false,\n                \"Permission denied, only admin contract & CHW can use function\"\n            );\n        }\n    }\n    \n    /**\n      * @notice Allows an admin to remove a user.\n      */\n    function removeUser(\n        address _user\n    )\n        external\n        isActive()\n    {\n        require(\n            _userDetails[msg.sender]._userRole == 1,\n            \"Incorrect permissions\"\n        );\n\n        _userDetails[_user]._userRole = 0;\n    }\n    \n    /**\n      * @notice Allows the admin contract to update the role of the user.\n      */\n    function updateUser(\n        address _user,\n        uint8 _newUserRole\n    )\n        external\n        isActive()\n    {\n        require(\n            _userDetails[msg.sender]._userRole == 1,\n            \"Incorrect permissions\"\n        );\n\n        _userDetails[_user]._userRole = _newUserRole;\n    }\n    \n    /**\n      * @notice Allows the admin contract to kill the registry, which will\n      *         prevent any users from being added or removed.\n      */\n    function kill() external onlyAdminContract() {\n        _active = false;\n    }\n\n    /**\n      * @notice Allows the vault contract to record a payout.\n      */\n    function verifyPayout(\n        address _user\n    )\n        external\n        view\n        onlyVaultContract()\n        isActive()\n        returns(bool)\n    {\n        require(\n            _userDetails[_user]._userRole != 0,\n            \"Revert, user role inactive\"\n        );\n        return true;\n    }\n\n    /**\n      * @notice Returns the role of the user.\n      */\n    function getUserRole(address _user) external view returns(uint8) {\n        return _userDetails[_user]._userRole;\n    }\n\n    /**\n      * @return bool : If the contract is currently active.\n      */\n    function isAlive() external view returns(bool) {\n        return _active;\n    }\n\n    function _addUser(\n        address _user,\n        uint8 _newUserRole\n    )\n        internal\n        isActive()\n        returns(uint8)\n    {\n        _userDetails[_user]._userRole = _newUserRole;\n        return uint8(_userDetails[_user]._userRole);\n    }\n}",
  "sourcePath": "/home/chris/Desktop/DailyGreens/IncentivesAlpha/Blockchain/contracts/Registry/Registry.sol",
  "compiler": {
    "name": "solc",
    "version": "0.5.10+commit.5a6ea5b1.Emscripten.clang",
    "optimizer": true,
    "runs": 999
  },
  "schemaVersion": "2.2.0",
  "updatedAt": "2019-10-14T13:30:39.409Z"
}