{
  "contractName": "Registry",
  "abi": [
    {
      "constant": false,
      "inputs": [],
      "name": "renounceWhitelistAdmin",
      "outputs": [],
      "payable": false,
      "stateMutability": "nonpayable",
      "type": "function"
    },
    {
      "constant": false,
      "inputs": [
        {
          "name": "account",
          "type": "address"
        }
      ],
      "name": "addWhitelistAdmin",
      "outputs": [],
      "payable": false,
      "stateMutability": "nonpayable",
      "type": "function"
    },
    {
      "constant": true,
      "inputs": [
        {
          "name": "account",
          "type": "address"
        }
      ],
      "name": "isWhitelistAdmin",
      "outputs": [
        {
          "name": "",
          "type": "bool"
        }
      ],
      "payable": false,
      "stateMutability": "view",
      "type": "function"
    },
    {
      "inputs": [
        {
          "name": "_vault",
          "type": "address"
        },
        {
          "name": "_admin",
          "type": "address"
        }
      ],
      "payable": false,
      "stateMutability": "nonpayable",
      "type": "constructor"
    },
    {
      "anonymous": false,
      "inputs": [
        {
          "indexed": true,
          "name": "account",
          "type": "address"
        }
      ],
      "name": "WhitelistAdminAdded",
      "type": "event"
    },
    {
      "anonymous": false,
      "inputs": [
        {
          "indexed": true,
          "name": "account",
          "type": "address"
        }
      ],
      "name": "WhitelistAdminRemoved",
      "type": "event"
    },
    {
      "constant": false,
      "inputs": [
        {
          "name": "_user",
          "type": "address"
        },
        {
          "name": "_newUserRole",
          "type": "uint8"
        }
      ],
      "name": "addUser",
      "outputs": [],
      "payable": false,
      "stateMutability": "nonpayable",
      "type": "function"
    },
    {
      "constant": false,
      "inputs": [
        {
          "name": "_user",
          "type": "address"
        }
      ],
      "name": "removeUser",
      "outputs": [],
      "payable": false,
      "stateMutability": "nonpayable",
      "type": "function"
    },
    {
      "constant": false,
      "inputs": [
        {
          "name": "_user",
          "type": "address"
        },
        {
          "name": "_newUserRole",
          "type": "uint8"
        }
      ],
      "name": "updateUser",
      "outputs": [],
      "payable": false,
      "stateMutability": "nonpayable",
      "type": "function"
    },
    {
      "constant": false,
      "inputs": [
        {
          "name": "_user",
          "type": "address"
        },
        {
          "name": "_amount",
          "type": "uint256"
        }
      ],
      "name": "recordPayout",
      "outputs": [],
      "payable": false,
      "stateMutability": "nonpayable",
      "type": "function"
    },
    {
      "constant": false,
      "inputs": [
        {
          "name": "_user",
          "type": "address"
        }
      ],
      "name": "getUserRole",
      "outputs": [
        {
          "name": "",
          "type": "uint8"
        }
      ],
      "payable": false,
      "stateMutability": "nonpayable",
      "type": "function"
    },
    {
      "constant": false,
      "inputs": [],
      "name": "kill",
      "outputs": [],
      "payable": false,
      "stateMutability": "nonpayable",
      "type": "function"
    }
  ],
  "bytecode": "0x60806040526004805460ff1916600117905534801561001d57600080fd5b50604051610c3c380380610c3c8339818101604052604081101561004057600080fd5b50805160209091015161005b336001600160e01b036100aa16565b600180546001600160a01b038085166001600160a01b03199283161783556002805491851691909216179055336000908152600360205260409020805460ff191682800217905550505061021e565b6100c28160006100f960201b61080d1790919060201c565b6040516001600160a01b038216907f22380c05984257a1cb900161c713dd71d39e74820f1aea43bd3f1bdd2096129990600090a250565b61010c82826001600160e01b0361019d16565b1561017857604080517f08c379a000000000000000000000000000000000000000000000000000000000815260206004820152601f60248201527f526f6c65733a206163636f756e7420616c72656164792068617320726f6c6500604482015290519081900360640190fd5b6001600160a01b0316600090815260209190915260409020805460ff19166001179055565b60006001600160a01b0382166101fe576040517f08c379a0000000000000000000000000000000000000000000000000000000008152600401808060200182810382526022815260200180610c1a6022913960400191505060405180910390fd5b506001600160a01b03166000908152602091909152604090205460ff1690565b6109ed8061022d6000396000f3fe608060405234801561001057600080fd5b50600436106100935760003560e01c80637041682c116100665780637041682c146101205780637362d9c81461014f57806398575188146101755780639c3eead91461019b578063bb5f747b146101ca57610093565b806323c5ebd51461009857806327820851146100c657806341c0e1b5146101105780634c5a628c14610118575b600080fd5b6100c4600480360360408110156100ae57600080fd5b506001600160a01b038135169060200135610204565b005b6100ec600480360360208110156100dc57600080fd5b50356001600160a01b031661031b565b604051808260048111156100fc57fe5b60ff16815260200191505060405180910390f35b6100c4610339565b6100c461038e565b6100c46004803603604081101561013657600080fd5b5080356001600160a01b0316906020013560ff16610399565b6100c46004803603602081101561016557600080fd5b50356001600160a01b0316610426565b6100c46004803603602081101561018b57600080fd5b50356001600160a01b0316610476565b6100c4600480360360408110156101b157600080fd5b5080356001600160a01b0316906020013560ff16610530565b6101f0600480360360208110156101e057600080fd5b50356001600160a01b0316610697565b604080519115158252519081900360200190f35b6001546001600160a01b0316331461024d5760405162461bcd60e51b815260040180806020018281038252603c8152602001806108bd603c913960400191505060405180910390fd5b60045460ff1661029d576040805162461bcd60e51b81526020600482015260166024820152755265676973747279206973206e6f742061637469766560501b604482015290519081900360640190fd5b6001600160a01b03821660009081526003602052604081205460ff1660048111156102c457fe5b1415610317576040805162461bcd60e51b815260206004820152601a60248201527f5265766572742c207573657220726f6c6520696e616374697665000000000000604482015290519081900360640190fd5b5050565b6001600160a01b031660009081526003602052604090205460ff1690565b6002546001600160a01b031633146103825760405162461bcd60e51b815260040180806020018281038252603c8152602001806108bd603c913960400191505060405180910390fd5b6004805460ff19169055565b610397336106af565b565b6002546001600160a01b031633146103e25760405162461bcd60e51b815260040180806020018281038252603c8152602001806108bd603c913960400191505060405180910390fd5b8060ff1660048111156103f157fe5b6001600160a01b0383166000908152600360205260409020805460ff1916600183600481111561041d57fe5b02179055505050565b61042f33610697565b61046a5760405162461bcd60e51b815260040180806020018281038252604081526020018061093c6040913960400191505060405180910390fd5b610473816106f7565b50565b6002546001600160a01b031633146104bf5760405162461bcd60e51b815260040180806020018281038252603c8152602001806108bd603c913960400191505060405180910390fd5b60045460ff1661050f576040805162461bcd60e51b81526020600482015260166024820152755265676973747279206973206e6f742061637469766560501b604482015290519081900360640190fd5b6001600160a01b03166000908152600360205260409020805460ff19169055565b60045460ff16610580576040805162461bcd60e51b81526020600482015260166024820152755265676973747279206973206e6f742061637469766560501b604482015290519081900360640190fd5b60023360009081526003602052604090205460ff1660048111156105a057fe5b141561063e5760ff81166001148015906105be575060ff8116600214155b6105f95760405162461bcd60e51b815260040180806020018281038252602e81526020018061088f602e913960400191505060405180910390fd5b8060ff16600481111561060857fe5b6001600160a01b0383166000908152600360205260409020805460ff1916600183600481111561063457fe5b0217905550610317565b6002546001600160a01b0316331415610660578060ff16600481111561060857fe5b60405162461bcd60e51b815260040180806020018281038252603d81526020018061097c603d913960400191505060405180910390fd5b60006106a9818363ffffffff61073f16565b92915050565b6106c060008263ffffffff6107a616565b6040516001600160a01b038216907f0a8eb35e5ca14b3d6f28e4abf2f128dbab231a58b56e89beb5d636115001e16590600090a250565b61070860008263ffffffff61080d16565b6040516001600160a01b038216907f22380c05984257a1cb900161c713dd71d39e74820f1aea43bd3f1bdd2096129990600090a250565b60006001600160a01b0382166107865760405162461bcd60e51b815260040180806020018281038252602281526020018061091a6022913960400191505060405180910390fd5b506001600160a01b03166000908152602091909152604090205460ff1690565b6107b0828261073f565b6107eb5760405162461bcd60e51b81526004018080602001828103825260218152602001806108f96021913960400191505060405180910390fd5b6001600160a01b0316600090815260209190915260409020805460ff19169055565b610817828261073f565b15610869576040805162461bcd60e51b815260206004820152601f60248201527f526f6c65733a206163636f756e7420616c72656164792068617320726f6c6500604482015290519081900360640190fd5b6001600160a01b0316600090815260209190915260409020805460ff1916600117905556fe5065726d697373696f6e2064656e6965642c204348572063616e6e6f74206164642061646d696e206f72204348575065726d697373696f6e2064656e6965642c206f6e6c792061646d696e20636f6e74726163742063616e207573652066756e6374696f6e616c697479526f6c65733a206163636f756e7420646f6573206e6f74206861766520726f6c65526f6c65733a206163636f756e7420697320746865207a65726f206164647265737357686974656c69737441646d696e526f6c653a2063616c6c657220646f6573206e6f742068617665207468652057686974656c69737441646d696e20726f6c655065726d697373696f6e2064656e6965642c206f6e6c792061646d696e20636f6e74726163742026204348572063616e207573652066756e6374696f6ea265627a7a7230582046a7f881e7b7d3a94c070c19e0da1da4def52c2ef7e2185b7a6a5835180a3ea564736f6c634300050a0032526f6c65733a206163636f756e7420697320746865207a65726f2061646472657373",
  "source": "pragma solidity 0.5.10;\n\nimport { IVault } from \"../Vault/IVault.sol\";\nimport { IAdmin } from \"../AdminDAO/IAdmin.sol\";\nimport { WhitelistAdminRole } from \"../Support/WhitelistAdminRole.sol\";\nimport { SafeMath } from \"../Support/math/SafeMath.sol\";\nimport { IRegistry } from \"./IRegistry.sol\";\n\ncontract Registry is IRegistry, WhitelistAdminRole {\n    using SafeMath for uint256;\n\n    // The contract instance of the vault contract\n    IVault internal _vaultInstance;\n    // The contract instance of the admin contract\n    IAdmin internal _adminInstance;\n    // The storage of uses and their roles\n    mapping(address => UserInfo) internal _userDetails;\n    // The active state of the registry\n    bool internal _active = true;\n\n    struct UserInfo {\n        UserRole _userRole;\n    }\n\n    /**\n      * @notice Sets up the registries variables.\n      */\n    constructor(address _vault, address _admin) public WhitelistAdminRole() {\n        _vaultInstance = IVault(_vault);\n        _adminInstance = IAdmin(_admin);\n        _userDetails[msg.sender]._userRole = UserRole.ADMIN;\n    }\n\n    modifier onlyAdminContract() {\n        require(\n            msg.sender == address(_adminInstance),\n            \"Permission denied, only admin contract can use functionality\"\n        );\n        _;\n    }\n\n    modifier onlyVaultContract() {\n        require(\n            msg.sender == address(_vaultInstance),\n            \"Permission denied, only admin contract can use functionality\"\n        );\n        _;\n    }\n\n    modifier isActive() {\n        require(_active, \"Registry is not active\");\n        _;\n    }\n\n    /**\n      * @notice Allows the adding of a user as any user role. If the\n      *         `msg.sender` is the admin contract, any user role may be added.\n      *         If the `msg.sender` is a CHW, only patients and practitioners\n      *         may be added.\n      */\n    function addUser(address _user, uint8 _newUserRole) external isActive() {\n        if(_userDetails[msg.sender]._userRole == UserRole.CHW) {\n            // Ensuring the CHW only adds roles it has permission to add\n            require(\n                _newUserRole != uint8(UserRole.ADMIN) && _newUserRole != uint8(UserRole.CHW),\n                \"Permission denied, CHW cannot add admin or CHW\"\n            );\n            // Adding the user\n            _userDetails[_user]._userRole = UserRole(_newUserRole);\n\n        } else if(msg.sender == address(_adminInstance)) {\n            // Adding the user\n            _userDetails[_user]._userRole = UserRole(_newUserRole);\n\n        } else {\n            require(\n                false,\n                \"Permission denied, only admin contract & CHW can use function\"\n            );\n        }\n    }\n    \n    /**\n      * @notice Allows the admin contract to remove a user.\n      */\n    function removeUser(address _user) external onlyAdminContract() isActive() {\n        _userDetails[_user]._userRole = UserRole.INACTIVE;\n    }\n    \n    /**\n      * @notice Allows the admin contract to update the role of the user.\n      */\n    function updateUser(\n        address _user,\n        uint8 _newUserRole\n    )\n        external\n        onlyAdminContract()\n    {\n        _userDetails[_user]._userRole = UserRole(_newUserRole);\n    }\n\n    /**\n      * @notice Allows the vault contract to record a payout.\n      */\n    function recordPayout(\n        address _user,\n        uint256 _amount\n    )\n        external\n        onlyVaultContract()\n        isActive()\n    {\n        require(\n            _userDetails[_user]._userRole != UserRole.INACTIVE,\n            \"Revert, user role inactive\"\n        );\n    }\n\n    /**\n      * @notice Returns the role of the user.\n      */\n    function getUserRole(address _user) external returns(UserRole) {\n        return _userDetails[_user]._userRole;\n    }\n    \n    /**\n      * @notice Allows the admin contract to kill the registry, which will\n      *         prevent any users from being added or removed.\n      */\n    function kill() external onlyAdminContract() {\n        _active = false;\n    }\n}",
  "sourcePath": "/home/chris/Desktop/DailyGreens/IncentivesAlpha/Blockchain/contracts/Registry/Registry.sol",
  "compiler": {
    "name": "solc",
    "version": "0.5.10+commit.5a6ea5b1.Emscripten.clang",
    "optimizer": true,
    "runs": 500
  },
  "schemaVersion": "2.2.0",
  "updatedAt": "2019-10-08T12:36:20.057Z"
}