{
  "contractName": "Registry",
  "abi": [
    {
      "constant": false,
      "inputs": [],
      "name": "renounceWhitelistAdmin",
      "outputs": [],
      "payable": false,
      "stateMutability": "nonpayable",
      "type": "function"
    },
    {
      "constant": false,
      "inputs": [
        {
          "name": "account",
          "type": "address"
        }
      ],
      "name": "addWhitelistAdmin",
      "outputs": [],
      "payable": false,
      "stateMutability": "nonpayable",
      "type": "function"
    },
    {
      "constant": true,
      "inputs": [
        {
          "name": "account",
          "type": "address"
        }
      ],
      "name": "isWhitelistAdmin",
      "outputs": [
        {
          "name": "",
          "type": "bool"
        }
      ],
      "payable": false,
      "stateMutability": "view",
      "type": "function"
    },
    {
      "inputs": [
        {
          "name": "_vault",
          "type": "address"
        },
        {
          "name": "_admin",
          "type": "address"
        }
      ],
      "payable": false,
      "stateMutability": "nonpayable",
      "type": "constructor"
    },
    {
      "anonymous": false,
      "inputs": [
        {
          "indexed": true,
          "name": "account",
          "type": "address"
        }
      ],
      "name": "WhitelistAdminAdded",
      "type": "event"
    },
    {
      "anonymous": false,
      "inputs": [
        {
          "indexed": true,
          "name": "account",
          "type": "address"
        }
      ],
      "name": "WhitelistAdminRemoved",
      "type": "event"
    },
    {
      "constant": false,
      "inputs": [
        {
          "name": "_user",
          "type": "address"
        },
        {
          "name": "_newUserRole",
          "type": "uint8"
        }
      ],
      "name": "addUser",
      "outputs": [],
      "payable": false,
      "stateMutability": "nonpayable",
      "type": "function"
    },
    {
      "constant": false,
      "inputs": [
        {
          "name": "_user",
          "type": "address"
        }
      ],
      "name": "removeUser",
      "outputs": [],
      "payable": false,
      "stateMutability": "nonpayable",
      "type": "function"
    },
    {
      "constant": false,
      "inputs": [
        {
          "name": "_user",
          "type": "address"
        },
        {
          "name": "_newUserRole",
          "type": "uint8"
        }
      ],
      "name": "updateUser",
      "outputs": [],
      "payable": false,
      "stateMutability": "nonpayable",
      "type": "function"
    },
    {
      "constant": false,
      "inputs": [
        {
          "name": "_user",
          "type": "address"
        },
        {
          "name": "_amount",
          "type": "uint256"
        }
      ],
      "name": "recordPayout",
      "outputs": [],
      "payable": false,
      "stateMutability": "nonpayable",
      "type": "function"
    },
    {
      "constant": false,
      "inputs": [
        {
          "name": "_user",
          "type": "address"
        }
      ],
      "name": "getUserRole",
      "outputs": [
        {
          "name": "",
          "type": "uint8"
        }
      ],
      "payable": false,
      "stateMutability": "nonpayable",
      "type": "function"
    },
    {
      "constant": false,
      "inputs": [
        {
          "name": "_user",
          "type": "address"
        }
      ],
      "name": "balanceOf",
      "outputs": [
        {
          "name": "",
          "type": "uint256"
        }
      ],
      "payable": false,
      "stateMutability": "nonpayable",
      "type": "function"
    },
    {
      "constant": false,
      "inputs": [],
      "name": "kill",
      "outputs": [],
      "payable": false,
      "stateMutability": "nonpayable",
      "type": "function"
    }
  ],
  "bytecode": "0x60806040526004805460ff1916600117905534801561001d57600080fd5b50604051610d69380380610d698339818101604052604081101561004057600080fd5b50805160209091015161005b336001600160e01b036100aa16565b600180546001600160a01b038085166001600160a01b03199283161783556002805491851691909216179055336000908152600360205260409020805460ff191682800217905550505061021e565b6100c28160006100f960201b61093a1790919060201c565b6040516001600160a01b038216907f22380c05984257a1cb900161c713dd71d39e74820f1aea43bd3f1bdd2096129990600090a250565b61010c82826001600160e01b0361019d16565b1561017857604080517f08c379a000000000000000000000000000000000000000000000000000000000815260206004820152601f60248201527f526f6c65733a206163636f756e7420616c72656164792068617320726f6c6500604482015290519081900360640190fd5b6001600160a01b0316600090815260209190915260409020805460ff19166001179055565b60006001600160a01b0382166101fe576040517f08c379a0000000000000000000000000000000000000000000000000000000008152600401808060200182810382526022815260200180610d476022913960400191505060405180910390fd5b506001600160a01b03166000908152602091909152604090205460ff1690565b610b1a8061022d6000396000f3fe608060405234801561001057600080fd5b506004361061009e5760003560e01c806370a082311161006657806370a082311461015a5780637362d9c81461019257806398575188146101b85780639c3eead9146101de578063bb5f747b1461020d5761009e565b806323c5ebd5146100a357806327820851146100d157806341c0e1b51461011b5780634c5a628c146101235780637041682c1461012b575b600080fd5b6100cf600480360360408110156100b957600080fd5b506001600160a01b038135169060200135610247565b005b6100f7600480360360208110156100e757600080fd5b50356001600160a01b03166103a9565b6040518082600481111561010757fe5b60ff16815260200191505060405180910390f35b6100cf6103c7565b6100cf61041c565b6100cf6004803603604081101561014157600080fd5b5080356001600160a01b0316906020013560ff16610427565b6101806004803603602081101561017057600080fd5b50356001600160a01b03166104b4565b60408051918252519081900360200190f35b6100cf600480360360208110156101a857600080fd5b50356001600160a01b03166104d2565b6100cf600480360360208110156101ce57600080fd5b50356001600160a01b0316610522565b6100cf600480360360408110156101f457600080fd5b5080356001600160a01b0316906020013560ff166105dc565b6102336004803603602081101561022357600080fd5b50356001600160a01b0316610763565b604080519115158252519081900360200190f35b6001546001600160a01b031633146102905760405162461bcd60e51b815260040180806020018281038252603c8152602001806109ea603c913960400191505060405180910390fd5b60045460ff166102e0576040805162461bcd60e51b81526020600482015260166024820152755265676973747279206973206e6f742061637469766560501b604482015290519081900360640190fd5b6001600160a01b03821660009081526003602052604081205460ff16600481111561030757fe5b141561035a576040805162461bcd60e51b815260206004820152601a60248201527f5265766572742c207573657220726f6c6520696e616374697665000000000000604482015290519081900360640190fd5b6001600160a01b038216600090815260036020526040902060010154610386908263ffffffff61077b16565b6001600160a01b0390921660009081526003602052604090206001019190915550565b6001600160a01b031660009081526003602052604090205460ff1690565b6002546001600160a01b031633146104105760405162461bcd60e51b815260040180806020018281038252603c8152602001806109ea603c913960400191505060405180910390fd5b6004805460ff19169055565b610425336107dc565b565b6002546001600160a01b031633146104705760405162461bcd60e51b815260040180806020018281038252603c8152602001806109ea603c913960400191505060405180910390fd5b8060ff16600481111561047f57fe5b6001600160a01b0383166000908152600360205260409020805460ff191660018360048111156104ab57fe5b02179055505050565b6001600160a01b031660009081526003602052604090206001015490565b6104db33610763565b6105165760405162461bcd60e51b8152600401808060200182810382526040815260200180610a696040913960400191505060405180910390fd5b61051f81610824565b50565b6002546001600160a01b0316331461056b5760405162461bcd60e51b815260040180806020018281038252603c8152602001806109ea603c913960400191505060405180910390fd5b60045460ff166105bb576040805162461bcd60e51b81526020600482015260166024820152755265676973747279206973206e6f742061637469766560501b604482015290519081900360640190fd5b6001600160a01b03166000908152600360205260409020805460ff19169055565b60045460ff1661062c576040805162461bcd60e51b81526020600482015260166024820152755265676973747279206973206e6f742061637469766560501b604482015290519081900360640190fd5b60023360009081526003602052604090205460ff16600481111561064c57fe5b14156107065760ff811660011480159061066a575060ff8116600214155b6106a55760405162461bcd60e51b815260040180806020018281038252602e8152602001806109bc602e913960400191505060405180910390fd5b8060ff1660048111156106b457fe5b6001600160a01b0383166000908152600360205260409020805460ff191660018360048111156106e057fe5b02179055506001600160a01b03821660009081526003602052604081206001015561075f565b6002546001600160a01b0316331415610728578060ff1660048111156106b457fe5b60405162461bcd60e51b815260040180806020018281038252603d815260200180610aa9603d913960400191505060405180910390fd5b5050565b6000610775818363ffffffff61086c16565b92915050565b6000828201838110156107d5576040805162461bcd60e51b815260206004820152601b60248201527f536166654d6174683a206164646974696f6e206f766572666c6f770000000000604482015290519081900360640190fd5b9392505050565b6107ed60008263ffffffff6108d316565b6040516001600160a01b038216907f0a8eb35e5ca14b3d6f28e4abf2f128dbab231a58b56e89beb5d636115001e16590600090a250565b61083560008263ffffffff61093a16565b6040516001600160a01b038216907f22380c05984257a1cb900161c713dd71d39e74820f1aea43bd3f1bdd2096129990600090a250565b60006001600160a01b0382166108b35760405162461bcd60e51b8152600401808060200182810382526022815260200180610a476022913960400191505060405180910390fd5b506001600160a01b03166000908152602091909152604090205460ff1690565b6108dd828261086c565b6109185760405162461bcd60e51b8152600401808060200182810382526021815260200180610a266021913960400191505060405180910390fd5b6001600160a01b0316600090815260209190915260409020805460ff19169055565b610944828261086c565b15610996576040805162461bcd60e51b815260206004820152601f60248201527f526f6c65733a206163636f756e7420616c72656164792068617320726f6c6500604482015290519081900360640190fd5b6001600160a01b0316600090815260209190915260409020805460ff1916600117905556fe5065726d697373696f6e2064656e6965642c204348572063616e6e6f74206164642061646d696e206f72204348575065726d697373696f6e2064656e6965642c206f6e6c792061646d696e20636f6e74726163742063616e207573652066756e6374696f6e616c697479526f6c65733a206163636f756e7420646f6573206e6f74206861766520726f6c65526f6c65733a206163636f756e7420697320746865207a65726f206164647265737357686974656c69737441646d696e526f6c653a2063616c6c657220646f6573206e6f742068617665207468652057686974656c69737441646d696e20726f6c655065726d697373696f6e2064656e6965642c206f6e6c792061646d696e20636f6e74726163742026204348572063616e207573652066756e6374696f6ea265627a7a72305820ac373972d9a4d2c29b9e9434153fa62e08eea59c2fe23c2ceaa5a458c2f79d9864736f6c634300050a0032526f6c65733a206163636f756e7420697320746865207a65726f2061646472657373",
  "source": "pragma solidity 0.5.10;\n\nimport { IVault } from \"../Vault/IVault.sol\";\nimport { IAdmin } from \"../AdminDAO/IAdmin.sol\";\nimport { WhitelistAdminRole } from \"../Support/WhitelistAdminRole.sol\";\nimport { SafeMath } from \"../Support/math/SafeMath.sol\";\nimport { IRegistry } from \"./IRegistry.sol\";\n\ncontract Registry is IRegistry, WhitelistAdminRole {\n    using SafeMath for uint256;\n\n    // The contract instance of the vault contract\n    IVault internal _vaultInstance;\n    // The contract instance of the admin contract\n    IAdmin internal _adminInstance;\n    // The storage of uses and their roles\n    mapping(address => UserInfo) internal _userDetails;\n    // The active state of the registry\n    bool internal _active = true;\n\n    struct UserInfo {\n        UserRole _userRole;\n        uint256 _balance;\n    }\n\n    /**\n      * @notice Sets up the registries variables.\n      */\n    constructor(address _vault, address _admin) public WhitelistAdminRole() {\n        _vaultInstance = IVault(_vault);\n        _adminInstance = IAdmin(_admin);\n        _userDetails[msg.sender]._userRole = UserRole.ADMIN;\n    }\n\n    modifier onlyAdminContract() {\n        require(\n            msg.sender == address(_adminInstance),\n            \"Permission denied, only admin contract can use functionality\"\n        );\n        _;\n    }\n\n    modifier onlyVaultContract() {\n        require(\n            msg.sender == address(_vaultInstance),\n            \"Permission denied, only admin contract can use functionality\"\n        );\n        _;\n    }\n\n    modifier isActive() {\n        require(_active, \"Registry is not active\");\n        _;\n    }\n\n    /**\n      * @notice Allows the adding of a user as any user role. If the\n      *         `msg.sender` is the admin contract, any user role may be added.\n      *         If the `msg.sender` is a CHW, only patients and practitioners\n      *         may be added.\n      */\n    function addUser(address _user, uint8 _newUserRole) external isActive() {\n        if(_userDetails[msg.sender]._userRole == UserRole.CHW) {\n            // Ensuring the CHW only adds roles it has permission to add\n            require(\n                _newUserRole != uint8(UserRole.ADMIN) && _newUserRole != uint8(UserRole.CHW),\n                \"Permission denied, CHW cannot add admin or CHW\"\n            );\n            // Adding the user\n            _userDetails[_user]._userRole = UserRole(_newUserRole);\n            _userDetails[_user]._balance = 0;\n\n        } else if(msg.sender == address(_adminInstance)) {\n            // Adding the user\n            _userDetails[_user]._userRole = UserRole(_newUserRole);\n            _userDetails[_user]._balance = 0;\n\n        } else {\n            require(\n                false,\n                \"Permission denied, only admin contract & CHW can use function\"\n            );\n        }\n    }\n    \n    /**\n      * @notice Allows the admin contract to remove a user.\n      */\n    function removeUser(address _user) external onlyAdminContract() isActive() {\n        _userDetails[_user]._userRole = UserRole.INACTIVE;\n    }\n    \n    /**\n      * @notice Allows the admin contract to update the role of the user.\n      */\n    function updateUser(\n        address _user,\n        uint8 _newUserRole\n    )\n        external\n        onlyAdminContract()\n    {\n        _userDetails[_user]._userRole = UserRole(_newUserRole);\n    }\n\n    /**\n      * @notice Allows the vault contract to record a payout.\n      */\n    function recordPayout(\n        address _user,\n        uint256 _amount\n    )\n        external\n        onlyVaultContract()\n        isActive()\n    {\n        require(\n            _userDetails[_user]._userRole != UserRole.INACTIVE,\n            \"Revert, user role inactive\"\n        );\n        \n        _userDetails[_user]._balance = _userDetails[_user]\n            ._balance.add(_amount);\n    }\n\n    /**\n      * @notice Returns the role of the user.\n      */\n    function getUserRole(address _user) external returns(UserRole) {\n        return _userDetails[_user]._userRole;\n    }\n\n    /**\n      * @notice Returns the balance of the user.\n      */\n    function balanceOf(address _user) external returns(uint256) {\n        return _userDetails[_user]._balance;\n    }\n    \n    /**\n      * @notice Allows the admin contract to kill the registry, which will\n      *         prevent any users from being added or removed.\n      */\n    function kill() external onlyAdminContract() {\n        _active = false;\n    }\n}",
  "sourcePath": "/Users/chris/Projects/IncentivesAlpha/Blockchain/contracts/Registry/Registry.sol",
  "compiler": {
    "name": "solc",
    "version": "0.5.10+commit.5a6ea5b1.Emscripten.clang",
    "optimizer": true,
    "runs": 500
  },
  "schemaVersion": "2.2.0",
  "updatedAt": "2019-10-07T23:51:59.965Z"
}