{
  "contractName": "Vault",
  "abi": [
    {
      "constant": false,
      "inputs": [],
      "name": "renounceWhitelistAdmin",
      "outputs": [],
      "payable": false,
      "stateMutability": "nonpayable",
      "type": "function"
    },
    {
      "constant": false,
      "inputs": [
        {
          "name": "account",
          "type": "address"
        }
      ],
      "name": "addWhitelistAdmin",
      "outputs": [],
      "payable": false,
      "stateMutability": "nonpayable",
      "type": "function"
    },
    {
      "constant": true,
      "inputs": [
        {
          "name": "account",
          "type": "address"
        }
      ],
      "name": "isWhitelistAdmin",
      "outputs": [
        {
          "name": "",
          "type": "bool"
        }
      ],
      "payable": false,
      "stateMutability": "view",
      "type": "function"
    },
    {
      "inputs": [
        {
          "name": "_admin",
          "type": "address"
        }
      ],
      "payable": false,
      "stateMutability": "nonpayable",
      "type": "constructor"
    },
    {
      "payable": true,
      "stateMutability": "payable",
      "type": "fallback"
    },
    {
      "anonymous": false,
      "inputs": [
        {
          "indexed": false,
          "name": "_amount",
          "type": "uint256"
        },
        {
          "indexed": false,
          "name": "_from",
          "type": "address"
        },
        {
          "indexed": false,
          "name": "_message",
          "type": "string"
        }
      ],
      "name": "recivedDonation",
      "type": "event"
    },
    {
      "anonymous": false,
      "inputs": [
        {
          "indexed": false,
          "name": "_pat",
          "type": "address"
        },
        {
          "indexed": false,
          "name": "prac",
          "type": "address"
        },
        {
          "indexed": false,
          "name": "_chw",
          "type": "address"
        },
        {
          "indexed": false,
          "name": "_amount",
          "type": "uint256"
        }
      ],
      "name": "payoutRecord",
      "type": "event"
    },
    {
      "anonymous": false,
      "inputs": [
        {
          "indexed": true,
          "name": "account",
          "type": "address"
        }
      ],
      "name": "WhitelistAdminAdded",
      "type": "event"
    },
    {
      "anonymous": false,
      "inputs": [
        {
          "indexed": true,
          "name": "account",
          "type": "address"
        }
      ],
      "name": "WhitelistAdminRemoved",
      "type": "event"
    },
    {
      "constant": false,
      "inputs": [
        {
          "name": "_registry",
          "type": "address"
        }
      ],
      "name": "init",
      "outputs": [],
      "payable": false,
      "stateMutability": "nonpayable",
      "type": "function"
    },
    {
      "constant": false,
      "inputs": [
        {
          "name": "_message",
          "type": "string"
        }
      ],
      "name": "donateFunds",
      "outputs": [],
      "payable": true,
      "stateMutability": "payable",
      "type": "function"
    },
    {
      "constant": false,
      "inputs": [
        {
          "name": "_patient",
          "type": "address"
        },
        {
          "name": "_practitioner",
          "type": "address"
        },
        {
          "name": "_CHW",
          "type": "address"
        },
        {
          "name": "_amountEach",
          "type": "uint256"
        }
      ],
      "name": "payout",
      "outputs": [],
      "payable": false,
      "stateMutability": "nonpayable",
      "type": "function"
    },
    {
      "constant": false,
      "inputs": [],
      "name": "kill",
      "outputs": [],
      "payable": false,
      "stateMutability": "nonpayable",
      "type": "function"
    },
    {
      "constant": true,
      "inputs": [],
      "name": "isAlive",
      "outputs": [
        {
          "name": "",
          "type": "bool"
        }
      ],
      "payable": false,
      "stateMutability": "view",
      "type": "function"
    },
    {
      "constant": true,
      "inputs": [],
      "name": "balance",
      "outputs": [
        {
          "name": "",
          "type": "uint256"
        }
      ],
      "payable": false,
      "stateMutability": "view",
      "type": "function"
    }
  ],
  "bytecode": "0x608060405234801561001057600080fd5b50604051610fe3380380610fe38339818101604052602081101561003357600080fd5b5051610047336001600160e01b0361007216565b600180546001600160a01b0390921661010002610100600160a81b03199092169190911790556101e6565b61008a8160006100c160201b610ba81790919060201c565b6040516001600160a01b038216907f22380c05984257a1cb900161c713dd71d39e74820f1aea43bd3f1bdd2096129990600090a250565b6100d482826001600160e01b0361016516565b1561014057604080517f08c379a000000000000000000000000000000000000000000000000000000000815260206004820152601f60248201527f526f6c65733a206163636f756e7420616c72656164792068617320726f6c6500604482015290519081900360640190fd5b6001600160a01b0316600090815260209190915260409020805460ff19166001179055565b60006001600160a01b0382166101c6576040517f08c379a0000000000000000000000000000000000000000000000000000000008152600401808060200182810382526022815260200180610fc16022913960400191505060405180910390fd5b506001600160a01b03166000908152602091909152604090205460ff1690565b610dcc806101f56000396000f3fe6080604052600436106100965760003560e01c80637362d9c811610069578063b69ef8a81161004e578063b69ef8a814610230578063bb5f747b14610257578063ce94eb961461028a57610096565b80637362d9c81461018d578063b50a84d4146101c057610096565b806319ab453c146101055780634136aa351461013a57806341c0e1b5146101635780634c5a628c14610178575b604080513481523360208201526060818301819052601a908201527f66616c6c6261636b2066756e6374696f6e20646f6e6174696f6e000000000000608082015290517f7730b84bb2adbda7873d2ec825c1674b7d44b3a97c7fe0c5fff70b8124264d279181900360a00190a1005b34801561011157600080fd5b506101386004803603602081101561012857600080fd5b50356001600160a01b03166102d3565b005b34801561014657600080fd5b5061014f61035d565b604080519115158252519081900360200190f35b34801561016f57600080fd5b50610138610366565b34801561018457600080fd5b506101386103fd565b34801561019957600080fd5b50610138600480360360208110156101b057600080fd5b50356001600160a01b0316610408565b610138600480360360208110156101d657600080fd5b8101906020810181356401000000008111156101f157600080fd5b82018360208201111561020357600080fd5b8035906020019184600183028401116401000000008311171561022557600080fd5b509092509050610458565b34801561023c57600080fd5b50610245610535565b60408051918252519081900360200190f35b34801561026357600080fd5b5061014f6004803603602081101561027a57600080fd5b50356001600160a01b031661053a565b34801561029657600080fd5b50610138600480360360808110156102ad57600080fd5b506001600160a01b03813581169160208101358216916040820135169060600135610552565b6102dc3361053a565b6103175760405162461bcd60e51b8152600401808060200182810382526040815260200180610d286040913960400191505060405180910390fd5b600280547fffffffffffffffffffffffff0000000000000000000000000000000000000000166001600160a01b03929092169190911790556001805460ff191681179055565b60015460ff1690565b60015461010090046001600160a01b031633146103b45760405162461bcd60e51b815260040180806020018281038252603c815260200180610c2a603c913960400191505060405180910390fd5b6001805460ff191690556003546040513031916001600160a01b03169082156108fc029083906000818181858888f193505050501580156103f9573d6000803e3d6000fd5b5050565b610406336109ea565b565b6104113361053a565b61044c5760405162461bcd60e51b8152600401808060200182810382526040815260200180610d286040913960400191505060405180910390fd5b61045581610a32565b50565b60015460ff166104af576040805162461bcd60e51b815260206004820152601760248201527f546865207661756c74206973206e6f7420616374697665000000000000000000604482015290519081900360640190fd5b7f7730b84bb2adbda7873d2ec825c1674b7d44b3a97c7fe0c5fff70b8124264d273433848460405180858152602001846001600160a01b03166001600160a01b03168152602001806020018281038252848482818152602001925080828437600083820152604051601f909101601f191690920182900397509095505050505050a15050565b303190565b600061054c818363ffffffff610a7a16565b92915050565b60025460408051632782085160e01b815233600482015290516001600160a01b0390921691632782085191602480820192602092909190829003018186803b15801561059d57600080fd5b505afa1580156105b1573d6000803e3d6000fd5b505050506040513d60208110156105c757600080fd5b505160ff1660011480610653575060025460408051632782085160e01b815233600482015290516001600160a01b0390921691632782085191602480820192602092909190829003018186803b15801561062057600080fd5b505afa158015610634573d6000803e3d6000fd5b505050506040513d602081101561064a57600080fd5b505160ff166002145b61068e5760405162461bcd60e51b8152600401808060200182810382526035815260200180610c876035913960400191505060405180910390fd5b60015460ff166106e5576040805162461bcd60e51b815260206004820152601760248201527f546865207661756c74206973206e6f7420616374697665000000000000000000604482015290519081900360640190fd5b3031806106f983600363ffffffff610ae116565b10156107365760405162461bcd60e51b8152600401808060200182810382526030815260200180610d686030913960400191505060405180910390fd5b600254604080516328bc95e960e11b81526001600160a01b038881166004830152915191909216916351792bd2916024808301926020929190829003018186803b15801561078357600080fd5b505afa158015610797573d6000803e3d6000fd5b505050506040513d60208110156107ad57600080fd5b505180156108305750600254604080516328bc95e960e11b81526001600160a01b038781166004830152915191909216916351792bd2916024808301926020929190829003018186803b15801561080357600080fd5b505afa158015610817573d6000803e3d6000fd5b505050506040513d602081101561082d57600080fd5b50515b80156108b15750600254604080516328bc95e960e11b81526001600160a01b038681166004830152915191909216916351792bd2916024808301926020929190829003018186803b15801561088457600080fd5b505afa158015610898573d6000803e3d6000fd5b505050506040513d60208110156108ae57600080fd5b50515b6108ec5760405162461bcd60e51b8152600401808060200182810382526029815260200180610cdd6029913960400191505060405180910390fd5b6040516001600160a01b0386169083156108fc029084906000818181858888f19350505050158015610922573d6000803e3d6000fd5b506040516001600160a01b0385169083156108fc029084906000818181858888f19350505050158015610959573d6000803e3d6000fd5b506040516001600160a01b0384169083156108fc029084906000818181858888f19350505050158015610990573d6000803e3d6000fd5b50604080516001600160a01b03808816825280871660208301528516818301526060810184905290517f73c74fb70fcdc2ac9d053245f2e51c137c5086793782f7ed3cb5f3240c63170c9181900360800190a15050505050565b6109fb60008263ffffffff610b4116565b6040516001600160a01b038216907f0a8eb35e5ca14b3d6f28e4abf2f128dbab231a58b56e89beb5d636115001e16590600090a250565b610a4360008263ffffffff610ba816565b6040516001600160a01b038216907f22380c05984257a1cb900161c713dd71d39e74820f1aea43bd3f1bdd2096129990600090a250565b60006001600160a01b038216610ac15760405162461bcd60e51b8152600401808060200182810382526022815260200180610d066022913960400191505060405180910390fd5b506001600160a01b03166000908152602091909152604090205460ff1690565b600082610af05750600061054c565b82820282848281610afd57fe5b0414610b3a5760405162461bcd60e51b8152600401808060200182810382526021815260200180610cbc6021913960400191505060405180910390fd5b9392505050565b610b4b8282610a7a565b610b865760405162461bcd60e51b8152600401808060200182810382526021815260200180610c666021913960400191505060405180910390fd5b6001600160a01b0316600090815260209190915260409020805460ff19169055565b610bb28282610a7a565b15610c04576040805162461bcd60e51b815260206004820152601f60248201527f526f6c65733a206163636f756e7420616c72656164792068617320726f6c6500604482015290519081900360640190fd5b6001600160a01b0316600090815260209190915260409020805460ff1916600117905556fe5065726d697373696f6e2064656e6965642c206f6e6c792061646d696e20636f6e74726163742063616e207573652066756e6374696f6e616c697479526f6c65733a206163636f756e7420646f6573206e6f74206861766520726f6c655573657220646f6573206e6f74206861766520636f7272656374207065726d697373696f6e7320746f206d616b65207061796f7574536166654d6174683a206d756c7469706c69636174696f6e206f766572666c6f775265766572742c2061207573657220696e20746865207061796f75742077617320696e616374697665526f6c65733a206163636f756e7420697320746865207a65726f206164647265737357686974656c69737441646d696e526f6c653a2063616c6c657220646f6573206e6f742068617665207468652057686974656c69737441646d696e20726f6c65496e737566696369656e742062616c616e636520696e207661756c7420746f20636f6d706c65617465207061796f7574a265627a7a72305820e9469e0f5fdff7252185dd5884bc94c7b30ad3a0d4c4aa5f5591d8d58f08fb5164736f6c634300050a0032526f6c65733a206163636f756e7420697320746865207a65726f2061646472657373",
  "source": "pragma solidity 0.5.10;\n\nimport { IVault } from \"./IVault.sol\";\nimport { IRegistry } from \"../Registry/IRegistry.sol\";\nimport { IAdmin } from \"../AdminDAO/IAdmin.sol\";\nimport { WhitelistAdminRole } from \"../Support/WhitelistAdminRole.sol\";\nimport { SafeMath } from \"../Support/math/SafeMath.sol\";\n\ncontract Vault is IVault, WhitelistAdminRole {\n    using SafeMath for uint256;\n    \n    // The active state of the contract\n    bool internal _active;\n    // The admin of the admin contract\n    IAdmin internal _adminInstance;\n    // The contract instance of the registry\n    IRegistry internal _registryInstance;\n    // Creator address\n    address payable internal _creator;\n\n    event recivedDonation(uint256 _amount, address _from, string _message);\n    event payoutRecord(address _pat, address prac, address _chw, uint256 _amount);\n\n    constructor(\n        address _admin\n    )\n        public\n        WhitelistAdminRole()\n    {\n        _adminInstance = IAdmin(_admin);\n    }\n\n    /**\n      * @dev Ensures that only the admin contract/admin can use functions\n      */\n    modifier isActive() {\n        require(\n            _active,\n            \"The vault is not active\"\n        );\n        _;\n    }\n\n    modifier onlyAdminContract() {\n        require(\n            msg.sender == address(_adminInstance),\n            \"Permission denied, only admin contract can use functionality\"\n        );\n        _;\n    }\n\n    modifier onlyAdminsAndCHW() {\n        require(\n            _registryInstance.getUserRole(msg.sender) == 1 ||\n            _registryInstance.getUserRole(msg.sender) == 2,\n            \"User does not have correct permissions to make payout\"\n        );\n        _;\n    }\n\n    /**\n      * @dev This allows admin addresses/contract to update/set the address\n      *      of the vault contract\n      */\n    function init(address _registry) external onlyWhitelistAdmin() {\n        _registryInstance = IRegistry(_registry);\n        _active = true;\n    }\n\n    /**\n      * @notice Allows the vault to receive funds from the admin contract. This\n      *         will mint tokens that will be owned by the vault until they are\n      *         spent as payouts.\n      */\n    function donateFunds(string calldata _message) external payable isActive() {\n        emit recivedDonation(msg.value, msg.sender, _message);\n    }\n\n    function payout(\n        address payable _patient,\n        address payable _practitioner,\n        address payable _CHW,\n        uint256 _amountEach\n    )\n        external\n        onlyAdminsAndCHW()\n        isActive()\n    {\n        uint256 balance = address(this).balance;\n        \n        require(\n            _amountEach.mul(3) >= balance,\n            \"Insuficient balance in vault to compleate payout\"\n        );\n        require(\n            _registryInstance.verifyPayout(_patient) &&\n            _registryInstance.verifyPayout(_practitioner) &&\n            _registryInstance.verifyPayout(_CHW)\n            ,\"Revert, a user in the payout was inactive\"\n        );\n\n        _patient.transfer(_amountEach);\n        _practitioner.transfer(_amountEach);\n        _CHW.transfer(_amountEach);\n\n        emit payoutRecord(_patient, _practitioner, _CHW, _amountEach);\n    }\n\n    /**\n      * @notice Allows the admin contract to kill the vault. This will make the\n      *         vault send all collateral to the admin contract owner, as well\n      *         as burn all remaining tokens.\n      */\n    function kill() external onlyAdminContract() {\n        _active = false;\n\n        uint256 balance = address(this).balance;\n        _creator.transfer(balance);\n    }\n\n    /**\n      * @return bool : If the contract is currently active.\n      */\n    function isAlive() external view returns(bool) {\n        return _active;\n    }\n\n    function balance() external view returns(uint256) {\n        return address(this).balance;\n    }\n\n    function() external payable {\n        emit recivedDonation(msg.value, msg.sender, \"fallback function donation\");\n    }\n}",
  "sourcePath": "/home/chris/Desktop/DailyGreens/IncentivesAlpha/Blockchain/contracts/Vault/Vault.sol",
  "compiler": {
    "name": "solc",
    "version": "0.5.10+commit.5a6ea5b1.Emscripten.clang",
    "optimizer": true,
    "runs": 999
  },
  "schemaVersion": "2.2.0",
  "updatedAt": "2019-10-15T16:00:46.489Z"
}