{
  "contractName": "Vault",
  "abi": [
    {
      "constant": false,
      "inputs": [],
      "name": "renounceWhitelistAdmin",
      "outputs": [],
      "payable": false,
      "stateMutability": "nonpayable",
      "type": "function"
    },
    {
      "constant": false,
      "inputs": [
        {
          "name": "account",
          "type": "address"
        }
      ],
      "name": "addWhitelistAdmin",
      "outputs": [],
      "payable": false,
      "stateMutability": "nonpayable",
      "type": "function"
    },
    {
      "constant": true,
      "inputs": [
        {
          "name": "account",
          "type": "address"
        }
      ],
      "name": "isWhitelistAdmin",
      "outputs": [
        {
          "name": "",
          "type": "bool"
        }
      ],
      "payable": false,
      "stateMutability": "view",
      "type": "function"
    },
    {
      "inputs": [
        {
          "name": "_admin",
          "type": "address"
        }
      ],
      "payable": false,
      "stateMutability": "nonpayable",
      "type": "constructor"
    },
    {
      "anonymous": false,
      "inputs": [
        {
          "indexed": true,
          "name": "account",
          "type": "address"
        }
      ],
      "name": "WhitelistAdminAdded",
      "type": "event"
    },
    {
      "anonymous": false,
      "inputs": [
        {
          "indexed": true,
          "name": "account",
          "type": "address"
        }
      ],
      "name": "WhitelistAdminRemoved",
      "type": "event"
    },
    {
      "constant": false,
      "inputs": [
        {
          "name": "_registry",
          "type": "address"
        }
      ],
      "name": "init",
      "outputs": [],
      "payable": false,
      "stateMutability": "nonpayable",
      "type": "function"
    },
    {
      "constant": false,
      "inputs": [],
      "name": "donateFunds",
      "outputs": [],
      "payable": true,
      "stateMutability": "payable",
      "type": "function"
    },
    {
      "constant": false,
      "inputs": [
        {
          "name": "_patient",
          "type": "address"
        },
        {
          "name": "_practitioner",
          "type": "address"
        },
        {
          "name": "_CHW",
          "type": "address"
        },
        {
          "name": "_amountEach",
          "type": "uint256"
        }
      ],
      "name": "payout",
      "outputs": [],
      "payable": false,
      "stateMutability": "nonpayable",
      "type": "function"
    },
    {
      "constant": false,
      "inputs": [],
      "name": "kill",
      "outputs": [],
      "payable": false,
      "stateMutability": "nonpayable",
      "type": "function"
    }
  ],
  "bytecode": "0x608060405234801561001057600080fd5b50604051610e50380380610e508339818101604052602081101561003357600080fd5b5051610047336001600160e01b0361007216565b600180546001600160a01b0390921661010002610100600160a81b03199092169190911790556101e6565b61008a8160006100c160201b610a4a1790919060201c565b6040516001600160a01b038216907f22380c05984257a1cb900161c713dd71d39e74820f1aea43bd3f1bdd2096129990600090a250565b6100d482826001600160e01b0361016516565b1561014057604080517f08c379a000000000000000000000000000000000000000000000000000000000815260206004820152601f60248201527f526f6c65733a206163636f756e7420616c72656164792068617320726f6c6500604482015290519081900360640190fd5b6001600160a01b0316600090815260209190915260409020805460ff19166001179055565b60006001600160a01b0382166101c6576040517f08c379a0000000000000000000000000000000000000000000000000000000008152600401808060200182810382526022815260200180610e2e6022913960400191505060405180910390fd5b506001600160a01b03166000908152602091909152604090205460ff1690565b610c39806101f56000396000f3fe6080604052600436106100705760003560e01c80637150773d1161004e5780637150773d146100d45780637362d9c8146100dc578063bb5f747b1461010f578063ce94eb961461015657610070565b806319ab453c1461007557806341c0e1b5146100aa5780634c5a628c146100bf575b600080fd5b34801561008157600080fd5b506100a86004803603602081101561009857600080fd5b50356001600160a01b031661019f565b005b3480156100b657600080fd5b506100a8610212565b3480156100cb57600080fd5b506100a86102f0565b6100a86102fb565b3480156100e857600080fd5b506100a8600480360360208110156100ff57600080fd5b50356001600160a01b031661039a565b34801561011b57600080fd5b506101426004803603602081101561013257600080fd5b50356001600160a01b03166103ea565b604080519115158252519081900360200190f35b34801561016257600080fd5b506100a86004803603608081101561017957600080fd5b506001600160a01b03813581169160208101358216916040820135169060600135610402565b6101a8336103ea565b6101e35760405162461bcd60e51b8152600401808060200182810382526040815260200180610b956040913960400191505060405180910390fd5b6002805473ffffffffffffffffffffffffffffffffffffffff19166001600160a01b0392909216919091179055565b61021b336103ea565b6102565760405162461bcd60e51b8152600401808060200182810382526040815260200180610b956040913960400191505060405180910390fd5b60015460ff166102a7576040805162461bcd60e51b8152602060048201526017602482015276546865207661756c74206973206e6f742061637469766560481b604482015290519081900360640190fd5b6001805460ff191690556003546040513031916001600160a01b03169082156108fc029083906000818181858888f193505050501580156102ec573d6000803e3d6000fd5b5050565b6102f93361088c565b565b60015461010090046001600160a01b031633146103495760405162461bcd60e51b815260040180806020018281038252603c815260200180610acc603c913960400191505060405180910390fd5b60015460ff166102f9576040805162461bcd60e51b8152602060048201526017602482015276546865207661756c74206973206e6f742061637469766560481b604482015290519081900360640190fd5b6103a3336103ea565b6103de5760405162461bcd60e51b8152600401808060200182810382526040815260200180610b956040913960400191505060405180910390fd5b6103e7816108d4565b50565b60006103fc818363ffffffff61091c16565b92915050565b60015460ff16610453576040805162461bcd60e51b8152602060048201526017602482015276546865207661756c74206973206e6f742061637469766560481b604482015290519081900360640190fd5b30318061046783600363ffffffff61098316565b10156104a45760405162461bcd60e51b8152600401808060200182810382526030815260200180610bd56030913960400191505060405180910390fd5b60025460408051632782085160e01b81526001600160a01b0388811660048301529151600093929092169163278208519160248082019260209290919082900301818787803b1580156104f657600080fd5b505af115801561050a573d6000803e3d6000fd5b505050506040513d602081101561052057600080fd5b5051600481111561052d57fe5b60ff16141580156105c8575060025460408051632782085160e01b81526001600160a01b0387811660048301529151600093929092169163278208519160248082019260209290919082900301818787803b15801561058b57600080fd5b505af115801561059f573d6000803e3d6000fd5b505050506040513d60208110156105b557600080fd5b505160048111156105c257fe5b60ff1614155b801561065e575060025460408051632782085160e01b81526001600160a01b0386811660048301529151600093929092169163278208519160248082019260209290919082900301818787803b15801561062157600080fd5b505af1158015610635573d6000803e3d6000fd5b505050506040513d602081101561064b57600080fd5b5051600481111561065857fe5b60ff1614155b6106995760405162461bcd60e51b8152600401808060200182810382526029815260200180610b4a6029913960400191505060405180910390fd5b6040516001600160a01b0386169083156108fc029084906000818181858888f193505050501580156106cf573d6000803e3d6000fd5b506040516001600160a01b0385169083156108fc029084906000818181858888f19350505050158015610706573d6000803e3d6000fd5b506040516001600160a01b0384169083156108fc029084906000818181858888f1935050505015801561073d573d6000803e3d6000fd5b50600254604080516323c5ebd560e01b81526001600160a01b03888116600483015260248201869052915191909216916323c5ebd591604480830192600092919082900301818387803b15801561079357600080fd5b505af11580156107a7573d6000803e3d6000fd5b5050600254604080516323c5ebd560e01b81526001600160a01b0389811660048301526024820188905291519190921693506323c5ebd59250604480830192600092919082900301818387803b15801561080057600080fd5b505af1158015610814573d6000803e3d6000fd5b5050600254604080516323c5ebd560e01b81526001600160a01b0388811660048301526024820188905291519190921693506323c5ebd59250604480830192600092919082900301818387803b15801561086d57600080fd5b505af1158015610881573d6000803e3d6000fd5b505050505050505050565b61089d60008263ffffffff6109e316565b6040516001600160a01b038216907f0a8eb35e5ca14b3d6f28e4abf2f128dbab231a58b56e89beb5d636115001e16590600090a250565b6108e560008263ffffffff610a4a16565b6040516001600160a01b038216907f22380c05984257a1cb900161c713dd71d39e74820f1aea43bd3f1bdd2096129990600090a250565b60006001600160a01b0382166109635760405162461bcd60e51b8152600401808060200182810382526022815260200180610b736022913960400191505060405180910390fd5b506001600160a01b03166000908152602091909152604090205460ff1690565b600082610992575060006103fc565b8282028284828161099f57fe5b04146109dc5760405162461bcd60e51b8152600401808060200182810382526021815260200180610b296021913960400191505060405180910390fd5b9392505050565b6109ed828261091c565b610a285760405162461bcd60e51b8152600401808060200182810382526021815260200180610b086021913960400191505060405180910390fd5b6001600160a01b0316600090815260209190915260409020805460ff19169055565b610a54828261091c565b15610aa6576040805162461bcd60e51b815260206004820152601f60248201527f526f6c65733a206163636f756e7420616c72656164792068617320726f6c6500604482015290519081900360640190fd5b6001600160a01b0316600090815260209190915260409020805460ff1916600117905556fe5065726d697373696f6e2064656e6965642c206f6e6c792061646d696e20636f6e74726163742063616e207573652066756e6374696f6e616c697479526f6c65733a206163636f756e7420646f6573206e6f74206861766520726f6c65536166654d6174683a206d756c7469706c69636174696f6e206f766572666c6f775265766572742c2061207573657220696e20746865207061796f75742077617320696e616374697665526f6c65733a206163636f756e7420697320746865207a65726f206164647265737357686974656c69737441646d696e526f6c653a2063616c6c657220646f6573206e6f742068617665207468652057686974656c69737441646d696e20726f6c65496e737566696369656e742062616c616e636520696e207661756c7420746f20636f6d706c65617465207061796f7574a265627a7a72305820e4dd6a64d21ce412788bf7212db308ee63f819308ae6d49c21ed4726f552096264736f6c634300050a0032526f6c65733a206163636f756e7420697320746865207a65726f2061646472657373",
  "source": "pragma solidity 0.5.10;\n\nimport { IVault } from \"./IVault.sol\";\nimport { IRegistry } from \"../Registry/IRegistry.sol\";\nimport { IAdmin } from \"../AdminDAO/IAdmin.sol\";\nimport { WhitelistAdminRole } from \"../Support/WhitelistAdminRole.sol\";\nimport { SafeMath } from \"../Support/math/SafeMath.sol\";\n\ncontract Vault is IVault, WhitelistAdminRole {\n    using SafeMath for uint256;\n    \n    // The active state of the contract\n    bool internal _active;\n    // The admin of the admin contract\n    IAdmin internal _adminInstance;\n    // The contract instance of the registry\n    IRegistry internal _registryInstance;\n    // Creator address\n    address payable internal _creator;\n\n    constructor(\n        address _admin\n    )\n        public\n        WhitelistAdminRole()\n    {\n        _adminInstance = IAdmin(_admin);\n    }\n\n    /**\n      * @dev Ensures that only the admin contract/admin can use functions\n      */\n    modifier isActive() {\n        require(\n            _active,\n            \"The vault is not active\"\n        );\n        _;\n    }\n\n    modifier onlyAdminContract() {\n        require(\n            msg.sender == address(_adminInstance),\n            \"Permission denied, only admin contract can use functionality\"\n        );\n        _;\n    }\n\n    /**\n      * @dev This allows admin addresses/contract to update/set the address\n      *      of the vault contract\n      */\n    function init(address _registry) external onlyWhitelistAdmin() {\n        _registryInstance = IRegistry(_registry);\n    }\n\n    /**\n      * @notice Allows the vault to receive funds from the admin contract. This\n      *         will mint tokens that will be owned by the vault until they are\n      *         spent as payouts.\n      */\n    function donateFunds() external payable onlyAdminContract() isActive() {\n        \n    }\n\n    function payout(\n        address payable _patient,\n        address payable _practitioner,\n        address payable _CHW,\n        uint256 _amountEach\n    )\n        external\n        isActive()\n    {\n        uint256 balance = address(this).balance;\n        // check with registry that msg.sender is chw\n        require(\n            _amountEach.mul(3) >= balance,\n            \"Insuficient balance in vault to compleate payout\"\n        );\n        require(\n            uint8(_registryInstance.getUserRole(_patient)) != uint8(UserRole.INACTIVE) &&\n            uint8(_registryInstance.getUserRole(_practitioner)) != uint8(UserRole.INACTIVE) &&\n            uint8(_registryInstance.getUserRole(_CHW)) != uint8(UserRole.INACTIVE)\n            ,\"Revert, a user in the payout was inactive\"\n        );\n\n        _patient.transfer(_amountEach);\n        _practitioner.transfer(_amountEach);\n        _CHW.transfer(_amountEach);\n\n        _registryInstance.recordPayout(_patient, _amountEach);\n        _registryInstance.recordPayout(_practitioner, _amountEach);\n        _registryInstance.recordPayout(_CHW, _amountEach);\n    }\n\n    /**\n      * @notice Allows the admin contract to kill the vault. This will make the\n      *         vault send all collateral to the admin contract owner, as well\n      *         as burn all remaining tokens.\n      */\n    function kill() external onlyWhitelistAdmin() isActive() {\n        _active = false;\n\n        uint256 balance = address(this).balance;\n        _creator.transfer(balance);\n    }\n}",
  "sourcePath": "/home/chris/Desktop/DailyGreens/IncentivesAlpha/Blockchain/contracts/Vault/Vault.sol",
  "compiler": {
    "name": "solc",
    "version": "0.5.10+commit.5a6ea5b1.Emscripten.clang",
    "optimizer": true,
    "runs": 500
  },
  "schemaVersion": "2.2.0",
  "updatedAt": "2019-10-08T12:36:20.039Z"
}