{
  "contractName": "Vault",
  "abi": [
    {
      "constant": false,
      "inputs": [],
      "name": "renounceWhitelistAdmin",
      "outputs": [],
      "payable": false,
      "stateMutability": "nonpayable",
      "type": "function"
    },
    {
      "constant": false,
      "inputs": [
        {
          "name": "account",
          "type": "address"
        }
      ],
      "name": "addWhitelistAdmin",
      "outputs": [],
      "payable": false,
      "stateMutability": "nonpayable",
      "type": "function"
    },
    {
      "constant": true,
      "inputs": [
        {
          "name": "account",
          "type": "address"
        }
      ],
      "name": "isWhitelistAdmin",
      "outputs": [
        {
          "name": "",
          "type": "bool"
        }
      ],
      "payable": false,
      "stateMutability": "view",
      "type": "function"
    },
    {
      "inputs": [
        {
          "name": "_admin",
          "type": "address"
        }
      ],
      "payable": false,
      "stateMutability": "nonpayable",
      "type": "constructor"
    },
    {
      "anonymous": false,
      "inputs": [
        {
          "indexed": true,
          "name": "account",
          "type": "address"
        }
      ],
      "name": "WhitelistAdminAdded",
      "type": "event"
    },
    {
      "anonymous": false,
      "inputs": [
        {
          "indexed": true,
          "name": "account",
          "type": "address"
        }
      ],
      "name": "WhitelistAdminRemoved",
      "type": "event"
    },
    {
      "constant": false,
      "inputs": [
        {
          "name": "_registry",
          "type": "address"
        }
      ],
      "name": "init",
      "outputs": [],
      "payable": false,
      "stateMutability": "nonpayable",
      "type": "function"
    },
    {
      "constant": false,
      "inputs": [],
      "name": "donateFunds",
      "outputs": [],
      "payable": true,
      "stateMutability": "payable",
      "type": "function"
    },
    {
      "constant": false,
      "inputs": [
        {
          "name": "_patient",
          "type": "address"
        },
        {
          "name": "_practitioner",
          "type": "address"
        },
        {
          "name": "_CHW",
          "type": "address"
        },
        {
          "name": "_amountEach",
          "type": "uint256"
        }
      ],
      "name": "payout",
      "outputs": [],
      "payable": false,
      "stateMutability": "nonpayable",
      "type": "function"
    },
    {
      "constant": false,
      "inputs": [],
      "name": "kill",
      "outputs": [],
      "payable": false,
      "stateMutability": "nonpayable",
      "type": "function"
    }
  ],
  "bytecode": "0x608060405234801561001057600080fd5b50604051610e6d380380610e6d8339818101604052602081101561003357600080fd5b5051610047336001600160e01b0361007216565b600180546001600160a01b0390921661010002610100600160a81b03199092169190911790556101e6565b61008a8160006100c160201b610a671790919060201c565b6040516001600160a01b038216907f22380c05984257a1cb900161c713dd71d39e74820f1aea43bd3f1bdd2096129990600090a250565b6100d482826001600160e01b0361016516565b1561014057604080517f08c379a000000000000000000000000000000000000000000000000000000000815260206004820152601f60248201527f526f6c65733a206163636f756e7420616c72656164792068617320726f6c6500604482015290519081900360640190fd5b6001600160a01b0316600090815260209190915260409020805460ff19166001179055565b60006001600160a01b0382166101c6576040517f08c379a0000000000000000000000000000000000000000000000000000000008152600401808060200182810382526022815260200180610e4b6022913960400191505060405180910390fd5b506001600160a01b03166000908152602091909152604090205460ff1690565b610c56806101f56000396000f3fe6080604052600436106100705760003560e01c80637150773d1161004e5780637150773d146100d45780637362d9c8146100dc578063bb5f747b1461010f578063ce94eb961461015657610070565b806319ab453c1461007557806341c0e1b5146100aa5780634c5a628c146100bf575b600080fd5b34801561008157600080fd5b506100a86004803603602081101561009857600080fd5b50356001600160a01b031661019f565b005b3480156100b657600080fd5b506100a861021d565b3480156100cb57600080fd5b506100a8610301565b6100a861030c565b3480156100e857600080fd5b506100a8600480360360208110156100ff57600080fd5b50356001600160a01b03166103b1565b34801561011b57600080fd5b506101426004803603602081101561013257600080fd5b50356001600160a01b0316610401565b604080519115158252519081900360200190f35b34801561016257600080fd5b506100a86004803603608081101561017957600080fd5b506001600160a01b03813581169160208101358216916040820135169060600135610419565b6101a833610401565b6101e35760405162461bcd60e51b8152600401808060200182810382526040815260200180610bb26040913960400191505060405180910390fd5b600280547fffffffffffffffffffffffff0000000000000000000000000000000000000000166001600160a01b0392909216919091179055565b61022633610401565b6102615760405162461bcd60e51b8152600401808060200182810382526040815260200180610bb26040913960400191505060405180910390fd5b60015460ff166102b8576040805162461bcd60e51b815260206004820152601760248201527f546865207661756c74206973206e6f7420616374697665000000000000000000604482015290519081900360640190fd5b6001805460ff191690556003546040513031916001600160a01b03169082156108fc029083906000818181858888f193505050501580156102fd573d6000803e3d6000fd5b5050565b61030a336108a9565b565b60015461010090046001600160a01b0316331461035a5760405162461bcd60e51b815260040180806020018281038252603c815260200180610ae9603c913960400191505060405180910390fd5b60015460ff1661030a576040805162461bcd60e51b815260206004820152601760248201527f546865207661756c74206973206e6f7420616374697665000000000000000000604482015290519081900360640190fd5b6103ba33610401565b6103f55760405162461bcd60e51b8152600401808060200182810382526040815260200180610bb26040913960400191505060405180910390fd5b6103fe816108f1565b50565b6000610413818363ffffffff61093916565b92915050565b60015460ff16610470576040805162461bcd60e51b815260206004820152601760248201527f546865207661756c74206973206e6f7420616374697665000000000000000000604482015290519081900360640190fd5b30318061048483600363ffffffff6109a016565b10156104c15760405162461bcd60e51b8152600401808060200182810382526030815260200180610bf26030913960400191505060405180910390fd5b60025460408051632782085160e01b81526001600160a01b0388811660048301529151600093929092169163278208519160248082019260209290919082900301818787803b15801561051357600080fd5b505af1158015610527573d6000803e3d6000fd5b505050506040513d602081101561053d57600080fd5b5051600481111561054a57fe5b60ff16141580156105e5575060025460408051632782085160e01b81526001600160a01b0387811660048301529151600093929092169163278208519160248082019260209290919082900301818787803b1580156105a857600080fd5b505af11580156105bc573d6000803e3d6000fd5b505050506040513d60208110156105d257600080fd5b505160048111156105df57fe5b60ff1614155b801561067b575060025460408051632782085160e01b81526001600160a01b0386811660048301529151600093929092169163278208519160248082019260209290919082900301818787803b15801561063e57600080fd5b505af1158015610652573d6000803e3d6000fd5b505050506040513d602081101561066857600080fd5b5051600481111561067557fe5b60ff1614155b6106b65760405162461bcd60e51b8152600401808060200182810382526029815260200180610b676029913960400191505060405180910390fd5b6040516001600160a01b0386169083156108fc029084906000818181858888f193505050501580156106ec573d6000803e3d6000fd5b506040516001600160a01b0385169083156108fc029084906000818181858888f19350505050158015610723573d6000803e3d6000fd5b506040516001600160a01b0384169083156108fc029084906000818181858888f1935050505015801561075a573d6000803e3d6000fd5b50600254604080516323c5ebd560e01b81526001600160a01b03888116600483015260248201869052915191909216916323c5ebd591604480830192600092919082900301818387803b1580156107b057600080fd5b505af11580156107c4573d6000803e3d6000fd5b5050600254604080516323c5ebd560e01b81526001600160a01b0389811660048301526024820188905291519190921693506323c5ebd59250604480830192600092919082900301818387803b15801561081d57600080fd5b505af1158015610831573d6000803e3d6000fd5b5050600254604080516323c5ebd560e01b81526001600160a01b0388811660048301526024820188905291519190921693506323c5ebd59250604480830192600092919082900301818387803b15801561088a57600080fd5b505af115801561089e573d6000803e3d6000fd5b505050505050505050565b6108ba60008263ffffffff610a0016565b6040516001600160a01b038216907f0a8eb35e5ca14b3d6f28e4abf2f128dbab231a58b56e89beb5d636115001e16590600090a250565b61090260008263ffffffff610a6716565b6040516001600160a01b038216907f22380c05984257a1cb900161c713dd71d39e74820f1aea43bd3f1bdd2096129990600090a250565b60006001600160a01b0382166109805760405162461bcd60e51b8152600401808060200182810382526022815260200180610b906022913960400191505060405180910390fd5b506001600160a01b03166000908152602091909152604090205460ff1690565b6000826109af57506000610413565b828202828482816109bc57fe5b04146109f95760405162461bcd60e51b8152600401808060200182810382526021815260200180610b466021913960400191505060405180910390fd5b9392505050565b610a0a8282610939565b610a455760405162461bcd60e51b8152600401808060200182810382526021815260200180610b256021913960400191505060405180910390fd5b6001600160a01b0316600090815260209190915260409020805460ff19169055565b610a718282610939565b15610ac3576040805162461bcd60e51b815260206004820152601f60248201527f526f6c65733a206163636f756e7420616c72656164792068617320726f6c6500604482015290519081900360640190fd5b6001600160a01b0316600090815260209190915260409020805460ff1916600117905556fe5065726d697373696f6e2064656e6965642c206f6e6c792061646d696e20636f6e74726163742063616e207573652066756e6374696f6e616c697479526f6c65733a206163636f756e7420646f6573206e6f74206861766520726f6c65536166654d6174683a206d756c7469706c69636174696f6e206f766572666c6f775265766572742c2061207573657220696e20746865207061796f75742077617320696e616374697665526f6c65733a206163636f756e7420697320746865207a65726f206164647265737357686974656c69737441646d696e526f6c653a2063616c6c657220646f6573206e6f742068617665207468652057686974656c69737441646d696e20726f6c65496e737566696369656e742062616c616e636520696e207661756c7420746f20636f6d706c65617465207061796f7574a265627a7a723058201dd2713e37b374670042a5aa4eae8e05f7069f33840cf3d4925dfa87108ca05764736f6c634300050a0032526f6c65733a206163636f756e7420697320746865207a65726f2061646472657373",
  "source": "pragma solidity 0.5.10;\n\nimport { IVault } from \"./IVault.sol\";\nimport { IRegistry } from \"../Registry/IRegistry.sol\";\nimport { IAdmin } from \"../AdminDAO/IAdmin.sol\";\nimport { WhitelistAdminRole } from \"../Support/WhitelistAdminRole.sol\";\nimport { SafeMath } from \"../Support/math/SafeMath.sol\";\n\ncontract Vault is IVault, WhitelistAdminRole {\n    using SafeMath for uint256;\n    \n    // The active state of the contract\n    bool internal _active;\n    // The admin of the admin contract\n    IAdmin internal _adminInstance;\n    // The contract instance of the registry\n    IRegistry internal _registryInstance;\n    // Creator address\n    address payable internal _creator;\n\n    constructor(\n        address _admin\n    )\n        public\n        WhitelistAdminRole()\n    {\n        _adminInstance = IAdmin(_admin);\n    }\n\n    /**\n      * @dev Ensures that only the admin contract/admin can use functions\n      */\n    modifier isActive() {\n        require(\n            _active,\n            \"The vault is not active\"\n        );\n        _;\n    }\n\n    modifier onlyAdminContract() {\n        require(\n            msg.sender == address(_adminInstance),\n            \"Permission denied, only admin contract can use functionality\"\n        );\n        _;\n    }\n\n    /**\n      * @dev This allows admin addresses/contract to update/set the address\n      *      of the vault contract\n      */\n    function init(address _registry) external onlyWhitelistAdmin() {\n        _registryInstance = IRegistry(_registry);\n    }\n\n    /**\n      * @notice Allows the vault to receive funds from the admin contract. This\n      *         will mint tokens that will be owned by the vault until they are\n      *         spent as payouts.\n      */\n    function donateFunds() external payable onlyAdminContract() isActive() {\n        \n    }\n\n    function payout(\n        address payable _patient,\n        address payable _practitioner,\n        address payable _CHW,\n        uint256 _amountEach\n    )\n        external\n        isActive()\n    {\n        uint256 balance = address(this).balance;\n        // check with registry that msg.sender is chw\n        require(\n            _amountEach.mul(3) >= balance,\n            \"Insuficient balance in vault to compleate payout\"\n        );\n        require(\n            uint8(_registryInstance.getUserRole(_patient)) != uint8(UserRole.INACTIVE) &&\n            uint8(_registryInstance.getUserRole(_practitioner)) != uint8(UserRole.INACTIVE) &&\n            uint8(_registryInstance.getUserRole(_CHW)) != uint8(UserRole.INACTIVE)\n            ,\"Revert, a user in the payout was inactive\"\n        );\n\n        _patient.transfer(_amountEach);\n        _practitioner.transfer(_amountEach);\n        _CHW.transfer(_amountEach);\n\n        _registryInstance.recordPayout(_patient, _amountEach);\n        _registryInstance.recordPayout(_practitioner, _amountEach);\n        _registryInstance.recordPayout(_CHW, _amountEach);\n    }\n\n    /**\n      * @notice Allows the admin contract to kill the vault. This will make the\n      *         vault send all collateral to the admin contract owner, as well\n      *         as burn all remaining tokens.\n      */\n    function kill() external onlyWhitelistAdmin() isActive() {\n        _active = false;\n\n        uint256 balance = address(this).balance;\n        _creator.transfer(balance);\n    }\n}",
  "sourcePath": "/Users/chris/Projects/IncentivesAlpha/Blockchain/contracts/Vault/Vault.sol",
  "compiler": {
    "name": "solc",
    "version": "0.5.10+commit.5a6ea5b1.Emscripten.clang",
    "optimizer": true,
    "runs": 999
  },
  "schemaVersion": "2.2.0",
  "updatedAt": "2019-09-26T07:20:15.831Z"
}