{
  "schemaVersion": "2.0.0",
  "contractName": "Registry",
  "compilerOutput": {
    "abi": [
      {
        "constant": false,
        "inputs": [],
        "name": "renounceWhitelistAdmin",
        "outputs": [],
        "payable": false,
        "stateMutability": "nonpayable",
        "type": "function"
      },
      {
        "constant": false,
        "inputs": [
          {
            "name": "account",
            "type": "address"
          }
        ],
        "name": "addWhitelistAdmin",
        "outputs": [],
        "payable": false,
        "stateMutability": "nonpayable",
        "type": "function"
      },
      {
        "constant": true,
        "inputs": [
          {
            "name": "account",
            "type": "address"
          }
        ],
        "name": "isWhitelistAdmin",
        "outputs": [
          {
            "name": "",
            "type": "bool"
          }
        ],
        "payable": false,
        "stateMutability": "view",
        "type": "function"
      },
      {
        "inputs": [
          {
            "name": "_vault",
            "type": "address"
          },
          {
            "name": "_admin",
            "type": "address"
          }
        ],
        "payable": false,
        "stateMutability": "nonpayable",
        "type": "constructor"
      },
      {
        "anonymous": false,
        "inputs": [
          {
            "indexed": true,
            "name": "account",
            "type": "address"
          }
        ],
        "name": "WhitelistAdminAdded",
        "type": "event"
      },
      {
        "anonymous": false,
        "inputs": [
          {
            "indexed": true,
            "name": "account",
            "type": "address"
          }
        ],
        "name": "WhitelistAdminRemoved",
        "type": "event"
      },
      {
        "constant": false,
        "inputs": [
          {
            "name": "_user",
            "type": "address"
          },
          {
            "name": "_newUserRole",
            "type": "uint8"
          }
        ],
        "name": "addUser",
        "outputs": [],
        "payable": false,
        "stateMutability": "nonpayable",
        "type": "function"
      },
      {
        "constant": false,
        "inputs": [
          {
            "name": "_user",
            "type": "address"
          }
        ],
        "name": "removeUser",
        "outputs": [],
        "payable": false,
        "stateMutability": "nonpayable",
        "type": "function"
      },
      {
        "constant": false,
        "inputs": [
          {
            "name": "_user",
            "type": "address"
          },
          {
            "name": "_newUserRole",
            "type": "uint8"
          }
        ],
        "name": "updateUser",
        "outputs": [],
        "payable": false,
        "stateMutability": "nonpayable",
        "type": "function"
      },
      {
        "constant": false,
        "inputs": [],
        "name": "kill",
        "outputs": [],
        "payable": false,
        "stateMutability": "nonpayable",
        "type": "function"
      },
      {
        "constant": true,
        "inputs": [
          {
            "name": "_user",
            "type": "address"
          }
        ],
        "name": "verifyPayout",
        "outputs": [
          {
            "name": "",
            "type": "bool"
          }
        ],
        "payable": false,
        "stateMutability": "view",
        "type": "function"
      },
      {
        "constant": true,
        "inputs": [
          {
            "name": "_user",
            "type": "address"
          }
        ],
        "name": "getUserRole",
        "outputs": [
          {
            "name": "",
            "type": "uint8"
          }
        ],
        "payable": false,
        "stateMutability": "view",
        "type": "function"
      },
      {
        "constant": true,
        "inputs": [],
        "name": "isAlive",
        "outputs": [
          {
            "name": "",
            "type": "bool"
          }
        ],
        "payable": false,
        "stateMutability": "view",
        "type": "function"
      }
    ],
    "evm": {
      "bytecode": {
        "linkReferences": {},
        "object": "0x60806040526001600460006101000a81548160ff02191690831515021790555034801561002b57600080fd5b5060405161162c38038061162c8339818101604052604081101561004e57600080fd5b810190808051906020019092919080519060200190929190505050610078336101d060201b60201c565b81600160006101000a81548173ffffffffffffffffffffffffffffffffffffffff021916908373ffffffffffffffffffffffffffffffffffffffff16021790555080600260006101000a81548173ffffffffffffffffffffffffffffffffffffffff021916908373ffffffffffffffffffffffffffffffffffffffff1602179055506001600360003373ffffffffffffffffffffffffffffffffffffffff1673ffffffffffffffffffffffffffffffffffffffff16815260200190815260200160002060000160006101000a81548160ff021916908360ff160217905550600160036000600260009054906101000a900473ffffffffffffffffffffffffffffffffffffffff1673ffffffffffffffffffffffffffffffffffffffff1673ffffffffffffffffffffffffffffffffffffffff16815260200190815260200160002060000160009054906101000a9050505050506103ed565b6101e881600061022e60201b610fd41790919060201c565b8073ffffffffffffffffffffffffffffffffffffffff167f22380c05984257a1cb900161c713dd71d39e74820f1aea43bd3f1bdd2096129960405160405180910390a250565b61023e828261030f60201b60201c565b156102b1576040517f08c379a000000000000000000000000000000000000000000000000000000000815260040180806020018281038252601f8152602001807f526f6c65733a206163636f756e7420616c72656164792068617320726f6c650081525060200191505060405180910390fd5b60018260000160008373ffffffffffffffffffffffffffffffffffffffff1673ffffffffffffffffffffffffffffffffffffffff16815260200190815260200160002060006101000a81548160ff0219169083151502179055505050565b60008073ffffffffffffffffffffffffffffffffffffffff168273ffffffffffffffffffffffffffffffffffffffff161415610396576040517f08c379a000000000000000000000000000000000000000000000000000000000815260040180806020018281038252602281526020018061160a6022913960400191505060405180910390fd5b8260000160008373ffffffffffffffffffffffffffffffffffffffff1673ffffffffffffffffffffffffffffffffffffffff16815260200190815260200160002060009054906101000a900460ff16905092915050565b61120e806103fc6000396000f3fe608060405234801561001057600080fd5b506004361061009e5760003560e01c80637041682c116100665780637041682c146101935780637362d9c8146101e457806398575188146102285780639c3eead91461026c578063bb5f747b146102bd5761009e565b806327820851146100a35780634136aa351461010157806341c0e1b5146101235780634c5a628c1461012d57806351792bd214610137575b600080fd5b6100e5600480360360208110156100b957600080fd5b81019080803573ffffffffffffffffffffffffffffffffffffffff169060200190929190505050610319565b604051808260ff1660ff16815260200191505060405180910390f35b610109610372565b604051808215151515815260200191505060405180910390f35b61012b610389565b005b61013561044c565b005b6101796004803603602081101561014d57600080fd5b81019080803573ffffffffffffffffffffffffffffffffffffffff169060200190929190505050610457565b604051808215151515815260200191505060405180910390f35b6101e2600480360360408110156101a957600080fd5b81019080803573ffffffffffffffffffffffffffffffffffffffff169060200190929190803560ff169060200190929190505050610653565b005b610226600480360360208110156101fa57600080fd5b81019080803573ffffffffffffffffffffffffffffffffffffffff1690602001909291905050506107fc565b005b61026a6004803603602081101561023e57600080fd5b81019080803573ffffffffffffffffffffffffffffffffffffffff169060200190929190505050610866565b005b6102bb6004803603604081101561028257600080fd5b81019080803573ffffffffffffffffffffffffffffffffffffffff169060200190929190803560ff169060200190929190505050610a0f565b005b6102ff600480360360208110156102d357600080fd5b81019080803573ffffffffffffffffffffffffffffffffffffffff169060200190929190505050610c31565b604051808215151515815260200191505060405180910390f35b6000600360008373ffffffffffffffffffffffffffffffffffffffff1673ffffffffffffffffffffffffffffffffffffffff16815260200190815260200160002060000160009054906101000a900460ff169050919050565b6000600460009054906101000a900460ff16905090565b600260009054906101000a900473ffffffffffffffffffffffffffffffffffffffff1673ffffffffffffffffffffffffffffffffffffffff163373ffffffffffffffffffffffffffffffffffffffff161461042f576040517f08c379a000000000000000000000000000000000000000000000000000000000815260040180806020018281038252603c8152602001806110de603c913960400191505060405180910390fd5b6000600460006101000a81548160ff021916908315150217905550565b61045533610c4e565b565b6000600160009054906101000a900473ffffffffffffffffffffffffffffffffffffffff1673ffffffffffffffffffffffffffffffffffffffff163373ffffffffffffffffffffffffffffffffffffffff16146104ff576040517f08c379a000000000000000000000000000000000000000000000000000000000815260040180806020018281038252603c8152602001806110de603c913960400191505060405180910390fd5b600460009054906101000a900460ff16610581576040517f08c379a00000000000000000000000000000000000000000000000000000000081526004018080602001828103825260168152602001807f5265676973747279206973206e6f74206163746976650000000000000000000081525060200191505060405180910390fd5b6000600360008473ffffffffffffffffffffffffffffffffffffffff1673ffffffffffffffffffffffffffffffffffffffff16815260200190815260200160002060000160009054906101000a900460ff1660ff16141561064a576040517f08c379a000000000000000000000000000000000000000000000000000000000815260040180806020018281038252601a8152602001807f5265766572742c207573657220726f6c6520696e61637469766500000000000081525060200191505060405180910390fd5b60019050919050565b600460009054906101000a900460ff166106d5576040517f08c379a00000000000000000000000000000000000000000000000000000000081526004018080602001828103825260168152602001807f5265676973747279206973206e6f74206163746976650000000000000000000081525060200191505060405180910390fd5b6001600360003373ffffffffffffffffffffffffffffffffffffffff1673ffffffffffffffffffffffffffffffffffffffff16815260200190815260200160002060000160009054906101000a900460ff1660ff161461079d576040517f08c379a00000000000000000000000000000000000000000000000000000000081526004018080602001828103825260158152602001807f496e636f7272656374207065726d697373696f6e73000000000000000000000081525060200191505060405180910390fd5b80600360008473ffffffffffffffffffffffffffffffffffffffff1673ffffffffffffffffffffffffffffffffffffffff16815260200190815260200160002060000160006101000a81548160ff021916908360ff1602179055505050565b61080533610c31565b61085a576040517f08c379a000000000000000000000000000000000000000000000000000000000815260040180806020018281038252604081526020018061115d6040913960400191505060405180910390fd5b61086381610ca8565b50565b600460009054906101000a900460ff166108e8576040517f08c379a00000000000000000000000000000000000000000000000000000000081526004018080602001828103825260168152602001807f5265676973747279206973206e6f74206163746976650000000000000000000081525060200191505060405180910390fd5b6001600360003373ffffffffffffffffffffffffffffffffffffffff1673ffffffffffffffffffffffffffffffffffffffff16815260200190815260200160002060000160009054906101000a900460ff1660ff16146109b0576040517f08c379a00000000000000000000000000000000000000000000000000000000081526004018080602001828103825260158152602001807f496e636f7272656374207065726d697373696f6e73000000000000000000000081525060200191505060405180910390fd5b6000600360008373ffffffffffffffffffffffffffffffffffffffff1673ffffffffffffffffffffffffffffffffffffffff16815260200190815260200160002060000160006101000a81548160ff021916908360ff16021790555050565b600460009054906101000a900460ff16610a91576040517f08c379a00000000000000000000000000000000000000000000000000000000081526004018080602001828103825260168152602001807f5265676973747279206973206e6f74206163746976650000000000000000000081525060200191505060405180910390fd5b6002600360003373ffffffffffffffffffffffffffffffffffffffff1673ffffffffffffffffffffffffffffffffffffffff16815260200190815260200160002060000160009054906101000a900460ff1660ff161415610b695760018160ff1614158015610b04575060028160ff1614155b610b59576040517f08c379a000000000000000000000000000000000000000000000000000000000815260040180806020018281038252602e8152602001806110b0602e913960400191505060405180910390fd5b610b638282610d02565b50610c2d565b6001600360003373ffffffffffffffffffffffffffffffffffffffff1673ffffffffffffffffffffffffffffffffffffffff16815260200190815260200160002060000160009054906101000a900460ff1660ff161415610bd457610bce8282610d02565b50610c2c565b6000610c2b576040517f08c379a000000000000000000000000000000000000000000000000000000000815260040180806020018281038252603d81526020018061119d603d913960400191505060405180910390fd5b5b5b5050565b6000610c47826000610e3990919063ffffffff16565b9050919050565b610c62816000610f1790919063ffffffff16565b8073ffffffffffffffffffffffffffffffffffffffff167f0a8eb35e5ca14b3d6f28e4abf2f128dbab231a58b56e89beb5d636115001e16560405160405180910390a250565b610cbc816000610fd490919063ffffffff16565b8073ffffffffffffffffffffffffffffffffffffffff167f22380c05984257a1cb900161c713dd71d39e74820f1aea43bd3f1bdd2096129960405160405180910390a250565b6000600460009054906101000a900460ff16610d86576040517f08c379a00000000000000000000000000000000000000000000000000000000081526004018080602001828103825260168152602001807f5265676973747279206973206e6f74206163746976650000000000000000000081525060200191505060405180910390fd5b81600360008573ffffffffffffffffffffffffffffffffffffffff1673ffffffffffffffffffffffffffffffffffffffff16815260200190815260200160002060000160006101000a81548160ff021916908360ff160217905550600360008473ffffffffffffffffffffffffffffffffffffffff1673ffffffffffffffffffffffffffffffffffffffff16815260200190815260200160002060000160009054906101000a900460ff16905092915050565b60008073ffffffffffffffffffffffffffffffffffffffff168273ffffffffffffffffffffffffffffffffffffffff161415610ec0576040517f08c379a000000000000000000000000000000000000000000000000000000000815260040180806020018281038252602281526020018061113b6022913960400191505060405180910390fd5b8260000160008373ffffffffffffffffffffffffffffffffffffffff1673ffffffffffffffffffffffffffffffffffffffff16815260200190815260200160002060009054906101000a900460ff16905092915050565b610f218282610e39565b610f76576040517f08c379a000000000000000000000000000000000000000000000000000000000815260040180806020018281038252602181526020018061111a6021913960400191505060405180910390fd5b60008260000160008373ffffffffffffffffffffffffffffffffffffffff1673ffffffffffffffffffffffffffffffffffffffff16815260200190815260200160002060006101000a81548160ff0219169083151502179055505050565b610fde8282610e39565b15611051576040517f08c379a000000000000000000000000000000000000000000000000000000000815260040180806020018281038252601f8152602001807f526f6c65733a206163636f756e7420616c72656164792068617320726f6c650081525060200191505060405180910390fd5b60018260000160008373ffffffffffffffffffffffffffffffffffffffff1673ffffffffffffffffffffffffffffffffffffffff16815260200190815260200160002060006101000a81548160ff021916908315150217905550505056fe5065726d697373696f6e2064656e6965642c204348572063616e6e6f74206164642061646d696e206f72204348575065726d697373696f6e2064656e6965642c206f6e6c792061646d696e20636f6e74726163742063616e207573652066756e6374696f6e616c697479526f6c65733a206163636f756e7420646f6573206e6f74206861766520726f6c65526f6c65733a206163636f756e7420697320746865207a65726f206164647265737357686974656c69737441646d696e526f6c653a2063616c6c657220646f6573206e6f742068617665207468652057686974656c69737441646d696e20726f6c655065726d697373696f6e2064656e6965642c206f6e6c792061646d696e20636f6e74726163742026204348572063616e207573652066756e6374696f6ea265627a7a72305820215c065045586441692482e52a6d47fffa595941decbc29251cc10f0f401c68c64736f6c634300050a0032526f6c65733a206163636f756e7420697320746865207a65726f2061646472657373",
        "opcodes": "PUSH1 0x80 PUSH1 0x40 MSTORE PUSH1 0x4 DUP1 SLOAD PUSH1 0xFF NOT AND PUSH1 0x1 OR SWAP1 SSTORE CALLVALUE DUP1 ISZERO PUSH2 0x1D JUMPI PUSH1 0x0 DUP1 REVERT JUMPDEST POP PUSH1 0x40 MLOAD PUSH2 0xD22 CODESIZE SUB DUP1 PUSH2 0xD22 DUP4 CODECOPY DUP2 DUP2 ADD PUSH1 0x40 MSTORE PUSH1 0x40 DUP2 LT ISZERO PUSH2 0x40 JUMPI PUSH1 0x0 DUP1 REVERT JUMPDEST POP DUP1 MLOAD PUSH1 0x20 SWAP1 SWAP2 ADD MLOAD PUSH2 0x5B CALLER PUSH1 0x1 PUSH1 0x1 PUSH1 0xE0 SHL SUB PUSH2 0xB0 AND JUMP JUMPDEST PUSH1 0x1 DUP1 SLOAD PUSH1 0x1 PUSH1 0x1 PUSH1 0xA0 SHL SUB NOT SWAP1 DUP2 AND PUSH1 0x1 PUSH1 0x1 PUSH1 0xA0 SHL SUB SWAP5 DUP6 AND OR DUP3 SSTORE PUSH1 0x2 DUP1 SLOAD SWAP1 SWAP2 AND SWAP3 DUP5 AND SWAP3 SWAP1 SWAP3 OR DUP3 SSTORE CALLER PUSH1 0x0 SWAP1 DUP2 MSTORE PUSH1 0x3 PUSH1 0x20 MSTORE PUSH1 0x40 DUP2 KECCAK256 DUP1 SLOAD PUSH1 0xFF NOT AND SWAP1 SWAP3 OR SWAP1 SWAP2 SSTORE SWAP1 SLOAD SWAP1 SWAP2 AND SWAP1 MSTORE PUSH2 0x224 JUMP JUMPDEST PUSH2 0xC8 DUP2 PUSH1 0x0 PUSH2 0xFF PUSH1 0x20 SHL PUSH2 0x8ED OR SWAP1 SWAP2 SWAP1 PUSH1 0x20 SHR JUMP JUMPDEST PUSH1 0x40 MLOAD PUSH1 0x1 PUSH1 0x1 PUSH1 0xA0 SHL SUB DUP3 AND SWAP1 PUSH32 0x22380C05984257A1CB900161C713DD71D39E74820F1AEA43BD3F1BDD20961299 SWAP1 PUSH1 0x0 SWAP1 LOG2 POP JUMP JUMPDEST PUSH2 0x112 DUP3 DUP3 PUSH1 0x1 PUSH1 0x1 PUSH1 0xE0 SHL SUB PUSH2 0x1A3 AND JUMP JUMPDEST ISZERO PUSH2 0x17E JUMPI PUSH1 0x40 DUP1 MLOAD PUSH32 0x8C379A000000000000000000000000000000000000000000000000000000000 DUP2 MSTORE PUSH1 0x20 PUSH1 0x4 DUP3 ADD MSTORE PUSH1 0x1F PUSH1 0x24 DUP3 ADD MSTORE PUSH32 0x526F6C65733A206163636F756E7420616C72656164792068617320726F6C6500 PUSH1 0x44 DUP3 ADD MSTORE SWAP1 MLOAD SWAP1 DUP2 SWAP1 SUB PUSH1 0x64 ADD SWAP1 REVERT JUMPDEST PUSH1 0x1 PUSH1 0x1 PUSH1 0xA0 SHL SUB AND PUSH1 0x0 SWAP1 DUP2 MSTORE PUSH1 0x20 SWAP2 SWAP1 SWAP2 MSTORE PUSH1 0x40 SWAP1 KECCAK256 DUP1 SLOAD PUSH1 0xFF NOT AND PUSH1 0x1 OR SWAP1 SSTORE JUMP JUMPDEST PUSH1 0x0 PUSH1 0x1 PUSH1 0x1 PUSH1 0xA0 SHL SUB DUP3 AND PUSH2 0x204 JUMPI PUSH1 0x40 MLOAD PUSH32 0x8C379A000000000000000000000000000000000000000000000000000000000 DUP2 MSTORE PUSH1 0x4 ADD DUP1 DUP1 PUSH1 0x20 ADD DUP3 DUP2 SUB DUP3 MSTORE PUSH1 0x22 DUP2 MSTORE PUSH1 0x20 ADD DUP1 PUSH2 0xD00 PUSH1 0x22 SWAP2 CODECOPY PUSH1 0x40 ADD SWAP2 POP POP PUSH1 0x40 MLOAD DUP1 SWAP2 SUB SWAP1 REVERT JUMPDEST POP PUSH1 0x1 PUSH1 0x1 PUSH1 0xA0 SHL SUB AND PUSH1 0x0 SWAP1 DUP2 MSTORE PUSH1 0x20 SWAP2 SWAP1 SWAP2 MSTORE PUSH1 0x40 SWAP1 KECCAK256 SLOAD PUSH1 0xFF AND SWAP1 JUMP JUMPDEST PUSH2 0xACD DUP1 PUSH2 0x233 PUSH1 0x0 CODECOPY PUSH1 0x0 RETURN INVALID PUSH1 0x80 PUSH1 0x40 MSTORE CALLVALUE DUP1 ISZERO PUSH2 0x10 JUMPI PUSH1 0x0 DUP1 REVERT JUMPDEST POP PUSH1 0x4 CALLDATASIZE LT PUSH2 0xBE JUMPI PUSH1 0x0 CALLDATALOAD PUSH1 0xE0 SHR DUP1 PUSH4 0x7041682C GT PUSH2 0x76 JUMPI DUP1 PUSH4 0x98575188 GT PUSH2 0x5B JUMPI DUP1 PUSH4 0x98575188 EQ PUSH2 0x1A8 JUMPI DUP1 PUSH4 0x9C3EEAD9 EQ PUSH2 0x1CE JUMPI DUP1 PUSH4 0xBB5F747B EQ PUSH2 0x1FD JUMPI PUSH2 0xBE JUMP JUMPDEST DUP1 PUSH4 0x7041682C EQ PUSH2 0x153 JUMPI DUP1 PUSH4 0x7362D9C8 EQ PUSH2 0x182 JUMPI PUSH2 0xBE JUMP JUMPDEST DUP1 PUSH4 0x41C0E1B5 GT PUSH2 0xA7 JUMPI DUP1 PUSH4 0x41C0E1B5 EQ PUSH2 0x11B JUMPI DUP1 PUSH4 0x4C5A628C EQ PUSH2 0x125 JUMPI DUP1 PUSH4 0x51792BD2 EQ PUSH2 0x12D JUMPI PUSH2 0xBE JUMP JUMPDEST DUP1 PUSH4 0x27820851 EQ PUSH2 0xC3 JUMPI DUP1 PUSH4 0x4136AA35 EQ PUSH2 0xFF JUMPI JUMPDEST PUSH1 0x0 DUP1 REVERT JUMPDEST PUSH2 0xE9 PUSH1 0x4 DUP1 CALLDATASIZE SUB PUSH1 0x20 DUP2 LT ISZERO PUSH2 0xD9 JUMPI PUSH1 0x0 DUP1 REVERT JUMPDEST POP CALLDATALOAD PUSH1 0x1 PUSH1 0x1 PUSH1 0xA0 SHL SUB AND PUSH2 0x223 JUMP JUMPDEST PUSH1 0x40 DUP1 MLOAD PUSH1 0xFF SWAP1 SWAP3 AND DUP3 MSTORE MLOAD SWAP1 DUP2 SWAP1 SUB PUSH1 0x20 ADD SWAP1 RETURN JUMPDEST PUSH2 0x107 PUSH2 0x241 JUMP JUMPDEST PUSH1 0x40 DUP1 MLOAD SWAP2 ISZERO ISZERO DUP3 MSTORE MLOAD SWAP1 DUP2 SWAP1 SUB PUSH1 0x20 ADD SWAP1 RETURN JUMPDEST PUSH2 0x123 PUSH2 0x24A JUMP JUMPDEST STOP JUMPDEST PUSH2 0x123 PUSH2 0x29F JUMP JUMPDEST PUSH2 0x107 PUSH1 0x4 DUP1 CALLDATASIZE SUB PUSH1 0x20 DUP2 LT ISZERO PUSH2 0x143 JUMPI PUSH1 0x0 DUP1 REVERT JUMPDEST POP CALLDATALOAD PUSH1 0x1 PUSH1 0x1 PUSH1 0xA0 SHL SUB AND PUSH2 0x2AA JUMP JUMPDEST PUSH2 0x123 PUSH1 0x4 DUP1 CALLDATASIZE SUB PUSH1 0x40 DUP2 LT ISZERO PUSH2 0x169 JUMPI PUSH1 0x0 DUP1 REVERT JUMPDEST POP DUP1 CALLDATALOAD PUSH1 0x1 PUSH1 0x1 PUSH1 0xA0 SHL SUB AND SWAP1 PUSH1 0x20 ADD CALLDATALOAD PUSH1 0xFF AND PUSH2 0x3BB JUMP JUMPDEST PUSH2 0x123 PUSH1 0x4 DUP1 CALLDATASIZE SUB PUSH1 0x20 DUP2 LT ISZERO PUSH2 0x198 JUMPI PUSH1 0x0 DUP1 REVERT JUMPDEST POP CALLDATALOAD PUSH1 0x1 PUSH1 0x1 PUSH1 0xA0 SHL SUB AND PUSH2 0x49F JUMP JUMPDEST PUSH2 0x123 PUSH1 0x4 DUP1 CALLDATASIZE SUB PUSH1 0x20 DUP2 LT ISZERO PUSH2 0x1BE JUMPI PUSH1 0x0 DUP1 REVERT JUMPDEST POP CALLDATALOAD PUSH1 0x1 PUSH1 0x1 PUSH1 0xA0 SHL SUB AND PUSH2 0x4EF JUMP JUMPDEST PUSH2 0x123 PUSH1 0x4 DUP1 CALLDATASIZE SUB PUSH1 0x40 DUP2 LT ISZERO PUSH2 0x1E4 JUMPI PUSH1 0x0 DUP1 REVERT JUMPDEST POP DUP1 CALLDATALOAD PUSH1 0x1 PUSH1 0x1 PUSH1 0xA0 SHL SUB AND SWAP1 PUSH1 0x20 ADD CALLDATALOAD PUSH1 0xFF AND PUSH2 0x5C7 JUMP JUMPDEST PUSH2 0x107 PUSH1 0x4 DUP1 CALLDATASIZE SUB PUSH1 0x20 DUP2 LT ISZERO PUSH2 0x213 JUMPI PUSH1 0x0 DUP1 REVERT JUMPDEST POP CALLDATALOAD PUSH1 0x1 PUSH1 0x1 PUSH1 0xA0 SHL SUB AND PUSH2 0x6F5 JUMP JUMPDEST PUSH1 0x1 PUSH1 0x1 PUSH1 0xA0 SHL SUB AND PUSH1 0x0 SWAP1 DUP2 MSTORE PUSH1 0x3 PUSH1 0x20 MSTORE PUSH1 0x40 SWAP1 KECCAK256 SLOAD PUSH1 0xFF AND SWAP1 JUMP JUMPDEST PUSH1 0x4 SLOAD PUSH1 0xFF AND SWAP1 JUMP JUMPDEST PUSH1 0x2 SLOAD PUSH1 0x1 PUSH1 0x1 PUSH1 0xA0 SHL SUB AND CALLER EQ PUSH2 0x293 JUMPI PUSH1 0x40 MLOAD PUSH3 0x461BCD PUSH1 0xE5 SHL DUP2 MSTORE PUSH1 0x4 ADD DUP1 DUP1 PUSH1 0x20 ADD DUP3 DUP2 SUB DUP3 MSTORE PUSH1 0x3C DUP2 MSTORE PUSH1 0x20 ADD DUP1 PUSH2 0x99D PUSH1 0x3C SWAP2 CODECOPY PUSH1 0x40 ADD SWAP2 POP POP PUSH1 0x40 MLOAD DUP1 SWAP2 SUB SWAP1 REVERT JUMPDEST PUSH1 0x4 DUP1 SLOAD PUSH1 0xFF NOT AND SWAP1 SSTORE JUMP JUMPDEST PUSH2 0x2A8 CALLER PUSH2 0x70D JUMP JUMPDEST JUMP JUMPDEST PUSH1 0x1 SLOAD PUSH1 0x0 SWAP1 PUSH1 0x1 PUSH1 0x1 PUSH1 0xA0 SHL SUB AND CALLER EQ PUSH2 0x2F6 JUMPI PUSH1 0x40 MLOAD PUSH3 0x461BCD PUSH1 0xE5 SHL DUP2 MSTORE PUSH1 0x4 ADD DUP1 DUP1 PUSH1 0x20 ADD DUP3 DUP2 SUB DUP3 MSTORE PUSH1 0x3C DUP2 MSTORE PUSH1 0x20 ADD DUP1 PUSH2 0x99D PUSH1 0x3C SWAP2 CODECOPY PUSH1 0x40 ADD SWAP2 POP POP PUSH1 0x40 MLOAD DUP1 SWAP2 SUB SWAP1 REVERT JUMPDEST PUSH1 0x4 SLOAD PUSH1 0xFF AND PUSH2 0x346 JUMPI PUSH1 0x40 DUP1 MLOAD PUSH3 0x461BCD PUSH1 0xE5 SHL DUP2 MSTORE PUSH1 0x20 PUSH1 0x4 DUP3 ADD MSTORE PUSH1 0x16 PUSH1 0x24 DUP3 ADD MSTORE PUSH22 0x5265676973747279206973206E6F7420616374697665 PUSH1 0x50 SHL PUSH1 0x44 DUP3 ADD MSTORE SWAP1 MLOAD SWAP1 DUP2 SWAP1 SUB PUSH1 0x64 ADD SWAP1 REVERT JUMPDEST PUSH1 0x1 PUSH1 0x1 PUSH1 0xA0 SHL SUB DUP3 AND PUSH1 0x0 SWAP1 DUP2 MSTORE PUSH1 0x3 PUSH1 0x20 MSTORE PUSH1 0x40 SWAP1 KECCAK256 SLOAD PUSH1 0xFF AND PUSH2 0x3B3 JUMPI PUSH1 0x40 DUP1 MLOAD PUSH3 0x461BCD PUSH1 0xE5 SHL DUP2 MSTORE PUSH1 0x20 PUSH1 0x4 DUP3 ADD MSTORE PUSH1 0x1A PUSH1 0x24 DUP3 ADD MSTORE PUSH32 0x5265766572742C207573657220726F6C6520696E616374697665000000000000 PUSH1 0x44 DUP3 ADD MSTORE SWAP1 MLOAD SWAP1 DUP2 SWAP1 SUB PUSH1 0x64 ADD SWAP1 REVERT JUMPDEST POP PUSH1 0x1 SWAP2 SWAP1 POP JUMP JUMPDEST PUSH1 0x4 SLOAD PUSH1 0xFF AND PUSH2 0x40B JUMPI PUSH1 0x40 DUP1 MLOAD PUSH3 0x461BCD PUSH1 0xE5 SHL DUP2 MSTORE PUSH1 0x20 PUSH1 0x4 DUP3 ADD MSTORE PUSH1 0x16 PUSH1 0x24 DUP3 ADD MSTORE PUSH22 0x5265676973747279206973206E6F7420616374697665 PUSH1 0x50 SHL PUSH1 0x44 DUP3 ADD MSTORE SWAP1 MLOAD SWAP1 DUP2 SWAP1 SUB PUSH1 0x64 ADD SWAP1 REVERT JUMPDEST CALLER PUSH1 0x0 SWAP1 DUP2 MSTORE PUSH1 0x3 PUSH1 0x20 MSTORE PUSH1 0x40 SWAP1 KECCAK256 SLOAD PUSH1 0xFF AND PUSH1 0x1 EQ PUSH2 0x472 JUMPI PUSH1 0x40 DUP1 MLOAD PUSH3 0x461BCD PUSH1 0xE5 SHL DUP2 MSTORE PUSH1 0x20 PUSH1 0x4 DUP3 ADD MSTORE PUSH1 0x15 PUSH1 0x24 DUP3 ADD MSTORE PUSH32 0x496E636F7272656374207065726D697373696F6E730000000000000000000000 PUSH1 0x44 DUP3 ADD MSTORE SWAP1 MLOAD SWAP1 DUP2 SWAP1 SUB PUSH1 0x64 ADD SWAP1 REVERT JUMPDEST PUSH1 0x1 PUSH1 0x1 PUSH1 0xA0 SHL SUB SWAP2 SWAP1 SWAP2 AND PUSH1 0x0 SWAP1 DUP2 MSTORE PUSH1 0x3 PUSH1 0x20 MSTORE PUSH1 0x40 SWAP1 KECCAK256 DUP1 SLOAD PUSH1 0xFF NOT AND PUSH1 0xFF SWAP1 SWAP3 AND SWAP2 SWAP1 SWAP2 OR SWAP1 SSTORE JUMP JUMPDEST PUSH2 0x4A8 CALLER PUSH2 0x6F5 JUMP JUMPDEST PUSH2 0x4E3 JUMPI PUSH1 0x40 MLOAD PUSH3 0x461BCD PUSH1 0xE5 SHL DUP2 MSTORE PUSH1 0x4 ADD DUP1 DUP1 PUSH1 0x20 ADD DUP3 DUP2 SUB DUP3 MSTORE PUSH1 0x40 DUP2 MSTORE PUSH1 0x20 ADD DUP1 PUSH2 0xA1C PUSH1 0x40 SWAP2 CODECOPY PUSH1 0x40 ADD SWAP2 POP POP PUSH1 0x40 MLOAD DUP1 SWAP2 SUB SWAP1 REVERT JUMPDEST PUSH2 0x4EC DUP2 PUSH2 0x755 JUMP JUMPDEST POP JUMP JUMPDEST PUSH1 0x4 SLOAD PUSH1 0xFF AND PUSH2 0x53F JUMPI PUSH1 0x40 DUP1 MLOAD PUSH3 0x461BCD PUSH1 0xE5 SHL DUP2 MSTORE PUSH1 0x20 PUSH1 0x4 DUP3 ADD MSTORE PUSH1 0x16 PUSH1 0x24 DUP3 ADD MSTORE PUSH22 0x5265676973747279206973206E6F7420616374697665 PUSH1 0x50 SHL PUSH1 0x44 DUP3 ADD MSTORE SWAP1 MLOAD SWAP1 DUP2 SWAP1 SUB PUSH1 0x64 ADD SWAP1 REVERT JUMPDEST CALLER PUSH1 0x0 SWAP1 DUP2 MSTORE PUSH1 0x3 PUSH1 0x20 MSTORE PUSH1 0x40 SWAP1 KECCAK256 SLOAD PUSH1 0xFF AND PUSH1 0x1 EQ PUSH2 0x5A6 JUMPI PUSH1 0x40 DUP1 MLOAD PUSH3 0x461BCD PUSH1 0xE5 SHL DUP2 MSTORE PUSH1 0x20 PUSH1 0x4 DUP3 ADD MSTORE PUSH1 0x15 PUSH1 0x24 DUP3 ADD MSTORE PUSH32 0x496E636F7272656374207065726D697373696F6E730000000000000000000000 PUSH1 0x44 DUP3 ADD MSTORE SWAP1 MLOAD SWAP1 DUP2 SWAP1 SUB PUSH1 0x64 ADD SWAP1 REVERT JUMPDEST PUSH1 0x1 PUSH1 0x1 PUSH1 0xA0 SHL SUB AND PUSH1 0x0 SWAP1 DUP2 MSTORE PUSH1 0x3 PUSH1 0x20 MSTORE PUSH1 0x40 SWAP1 KECCAK256 DUP1 SLOAD PUSH1 0xFF NOT AND SWAP1 SSTORE JUMP JUMPDEST PUSH1 0x4 SLOAD PUSH1 0xFF AND PUSH2 0x617 JUMPI PUSH1 0x40 DUP1 MLOAD PUSH3 0x461BCD PUSH1 0xE5 SHL DUP2 MSTORE PUSH1 0x20 PUSH1 0x4 DUP3 ADD MSTORE PUSH1 0x16 PUSH1 0x24 DUP3 ADD MSTORE PUSH22 0x5265676973747279206973206E6F7420616374697665 PUSH1 0x50 SHL PUSH1 0x44 DUP3 ADD MSTORE SWAP1 MLOAD SWAP1 DUP2 SWAP1 SUB PUSH1 0x64 ADD SWAP1 REVERT JUMPDEST CALLER PUSH1 0x0 SWAP1 DUP2 MSTORE PUSH1 0x3 PUSH1 0x20 MSTORE PUSH1 0x40 SWAP1 KECCAK256 SLOAD PUSH1 0xFF AND PUSH1 0x2 EQ ISZERO PUSH2 0x695 JUMPI DUP1 PUSH1 0xFF AND PUSH1 0x1 EQ ISZERO DUP1 ISZERO PUSH2 0x64A JUMPI POP DUP1 PUSH1 0xFF AND PUSH1 0x2 EQ ISZERO JUMPDEST PUSH2 0x685 JUMPI PUSH1 0x40 MLOAD PUSH3 0x461BCD PUSH1 0xE5 SHL DUP2 MSTORE PUSH1 0x4 ADD DUP1 DUP1 PUSH1 0x20 ADD DUP3 DUP2 SUB DUP3 MSTORE PUSH1 0x2E DUP2 MSTORE PUSH1 0x20 ADD DUP1 PUSH2 0x96F PUSH1 0x2E SWAP2 CODECOPY PUSH1 0x40 ADD SWAP2 POP POP PUSH1 0x40 MLOAD DUP1 SWAP2 SUB SWAP1 REVERT JUMPDEST PUSH2 0x68F DUP3 DUP3 PUSH2 0x79D JUMP JUMPDEST POP PUSH2 0x6F1 JUMP JUMPDEST CALLER PUSH1 0x0 SWAP1 DUP2 MSTORE PUSH1 0x3 PUSH1 0x20 MSTORE PUSH1 0x40 SWAP1 KECCAK256 SLOAD PUSH1 0xFF AND PUSH1 0x1 EQ ISZERO PUSH2 0x6BA JUMPI PUSH2 0x68F DUP3 DUP3 PUSH2 0x79D JUMP JUMPDEST PUSH1 0x40 MLOAD PUSH3 0x461BCD PUSH1 0xE5 SHL DUP2 MSTORE PUSH1 0x4 ADD DUP1 DUP1 PUSH1 0x20 ADD DUP3 DUP2 SUB DUP3 MSTORE PUSH1 0x3D DUP2 MSTORE PUSH1 0x20 ADD DUP1 PUSH2 0xA5C PUSH1 0x3D SWAP2 CODECOPY PUSH1 0x40 ADD SWAP2 POP POP PUSH1 0x40 MLOAD DUP1 SWAP2 SUB SWAP1 REVERT JUMPDEST POP POP JUMP JUMPDEST PUSH1 0x0 PUSH2 0x707 DUP2 DUP4 PUSH4 0xFFFFFFFF PUSH2 0x81F AND JUMP JUMPDEST SWAP3 SWAP2 POP POP JUMP JUMPDEST PUSH2 0x71E PUSH1 0x0 DUP3 PUSH4 0xFFFFFFFF PUSH2 0x886 AND JUMP JUMPDEST PUSH1 0x40 MLOAD PUSH1 0x1 PUSH1 0x1 PUSH1 0xA0 SHL SUB DUP3 AND SWAP1 PUSH32 0xA8EB35E5CA14B3D6F28E4ABF2F128DBAB231A58B56E89BEB5D636115001E165 SWAP1 PUSH1 0x0 SWAP1 LOG2 POP JUMP JUMPDEST PUSH2 0x766 PUSH1 0x0 DUP3 PUSH4 0xFFFFFFFF PUSH2 0x8ED AND JUMP JUMPDEST PUSH1 0x40 MLOAD PUSH1 0x1 PUSH1 0x1 PUSH1 0xA0 SHL SUB DUP3 AND SWAP1 PUSH32 0x22380C05984257A1CB900161C713DD71D39E74820F1AEA43BD3F1BDD20961299 SWAP1 PUSH1 0x0 SWAP1 LOG2 POP JUMP JUMPDEST PUSH1 0x4 SLOAD PUSH1 0x0 SWAP1 PUSH1 0xFF AND PUSH2 0x7F0 JUMPI PUSH1 0x40 DUP1 MLOAD PUSH3 0x461BCD PUSH1 0xE5 SHL DUP2 MSTORE PUSH1 0x20 PUSH1 0x4 DUP3 ADD MSTORE PUSH1 0x16 PUSH1 0x24 DUP3 ADD MSTORE PUSH22 0x5265676973747279206973206E6F7420616374697665 PUSH1 0x50 SHL PUSH1 0x44 DUP3 ADD MSTORE SWAP1 MLOAD SWAP1 DUP2 SWAP1 SUB PUSH1 0x64 ADD SWAP1 REVERT JUMPDEST POP PUSH1 0x1 PUSH1 0x1 PUSH1 0xA0 SHL SUB SWAP2 SWAP1 SWAP2 AND PUSH1 0x0 SWAP1 DUP2 MSTORE PUSH1 0x3 PUSH1 0x20 MSTORE PUSH1 0x40 SWAP1 KECCAK256 DUP1 SLOAD PUSH1 0xFF NOT AND PUSH1 0xFF SWAP3 DUP4 AND OR SWAP1 DUP2 SWAP1 SSTORE AND SWAP1 JUMP JUMPDEST PUSH1 0x0 PUSH1 0x1 PUSH1 0x1 PUSH1 0xA0 SHL SUB DUP3 AND PUSH2 0x866 JUMPI PUSH1 0x40 MLOAD PUSH3 0x461BCD PUSH1 0xE5 SHL DUP2 MSTORE PUSH1 0x4 ADD DUP1 DUP1 PUSH1 0x20 ADD DUP3 DUP2 SUB DUP3 MSTORE PUSH1 0x22 DUP2 MSTORE PUSH1 0x20 ADD DUP1 PUSH2 0x9FA PUSH1 0x22 SWAP2 CODECOPY PUSH1 0x40 ADD SWAP2 POP POP PUSH1 0x40 MLOAD DUP1 SWAP2 SUB SWAP1 REVERT JUMPDEST POP PUSH1 0x1 PUSH1 0x1 PUSH1 0xA0 SHL SUB AND PUSH1 0x0 SWAP1 DUP2 MSTORE PUSH1 0x20 SWAP2 SWAP1 SWAP2 MSTORE PUSH1 0x40 SWAP1 KECCAK256 SLOAD PUSH1 0xFF AND SWAP1 JUMP JUMPDEST PUSH2 0x890 DUP3 DUP3 PUSH2 0x81F JUMP JUMPDEST PUSH2 0x8CB JUMPI PUSH1 0x40 MLOAD PUSH3 0x461BCD PUSH1 0xE5 SHL DUP2 MSTORE PUSH1 0x4 ADD DUP1 DUP1 PUSH1 0x20 ADD DUP3 DUP2 SUB DUP3 MSTORE PUSH1 0x21 DUP2 MSTORE PUSH1 0x20 ADD DUP1 PUSH2 0x9D9 PUSH1 0x21 SWAP2 CODECOPY PUSH1 0x40 ADD SWAP2 POP POP PUSH1 0x40 MLOAD DUP1 SWAP2 SUB SWAP1 REVERT JUMPDEST PUSH1 0x1 PUSH1 0x1 PUSH1 0xA0 SHL SUB AND PUSH1 0x0 SWAP1 DUP2 MSTORE PUSH1 0x20 SWAP2 SWAP1 SWAP2 MSTORE PUSH1 0x40 SWAP1 KECCAK256 DUP1 SLOAD PUSH1 0xFF NOT AND SWAP1 SSTORE JUMP JUMPDEST PUSH2 0x8F7 DUP3 DUP3 PUSH2 0x81F JUMP JUMPDEST ISZERO PUSH2 0x949 JUMPI PUSH1 0x40 DUP1 MLOAD PUSH3 0x461BCD PUSH1 0xE5 SHL DUP2 MSTORE PUSH1 0x20 PUSH1 0x4 DUP3 ADD MSTORE PUSH1 0x1F PUSH1 0x24 DUP3 ADD MSTORE PUSH32 0x526F6C65733A206163636F756E7420616C72656164792068617320726F6C6500 PUSH1 0x44 DUP3 ADD MSTORE SWAP1 MLOAD SWAP1 DUP2 SWAP1 SUB PUSH1 0x64 ADD SWAP1 REVERT JUMPDEST PUSH1 0x1 PUSH1 0x1 PUSH1 0xA0 SHL SUB AND PUSH1 0x0 SWAP1 DUP2 MSTORE PUSH1 0x20 SWAP2 SWAP1 SWAP2 MSTORE PUSH1 0x40 SWAP1 KECCAK256 DUP1 SLOAD PUSH1 0xFF NOT AND PUSH1 0x1 OR SWAP1 SSTORE JUMP INVALID POP PUSH6 0x726D69737369 PUSH16 0x6E2064656E6965642C20434857206361 PUSH15 0x6E6F74206164642061646D696E206F PUSH19 0x204348575065726D697373696F6E2064656E69 PUSH6 0x642C206F6E6C PUSH26 0x2061646D696E20636F6E74726163742063616E20757365206675 PUSH15 0x6374696F6E616C697479526F6C6573 GASPRICE KECCAK256 PUSH2 0x6363 PUSH16 0x756E7420646F6573206E6F7420686176 PUSH6 0x20726F6C6552 PUSH16 0x6C65733A206163636F756E7420697320 PUSH21 0x6865207A65726F206164647265737357686974656C PUSH10 0x737441646D696E526F6C PUSH6 0x3A2063616C6C PUSH6 0x7220646F6573 KECCAK256 PUSH15 0x6F7420686176652074686520576869 PUSH21 0x656C69737441646D696E20726F6C655065726D6973 PUSH20 0x696F6E2064656E6965642C206F6E6C792061646D PUSH10 0x6E20636F6E7472616374 KECCAK256 0x26 KECCAK256 NUMBER 0x48 JUMPI KECCAK256 PUSH4 0x616E2075 PUSH20 0x652066756E6374696F6EA265627A7A723058208F 0xc7 SSTORE 0xa6 CODESIZE PUSH7 0x17E7715646B553 EXP 0x25 0x4b PUSH26 0x6A8D09C5CA6BD092DF8654BF075E4964736F6C634300050A0032 MSTORE PUSH16 0x6C65733A206163636F756E7420697320 PUSH21 0x6865207A65726F2061646472657373000000000000 "
      }
    }
  },
  "sourceTreeHashHex": "0xa0cc72ac0ab164f234ba189e1c738ccffb3c83e58d205e24185525ca1785b828",
  "compiler": {
    "name": "solc",
    "version": "soljson-v0.5.10+commit.5a6ea5b1.js",
    "settings": {
      "optimizer": {
        "enabled": true,
        "runs": 999
      },
      "outputSelection": {
        "*": {
          "*": [
            "abi",
            "evm.bytecode.object",
            "evm.deployedBytecode.object"
          ]
        }
      },
      "remappings": []
    }
  }
}