{
  "contractName": "Vault",
  "abi": [
    {
      "constant": false,
      "inputs": [],
      "name": "renounceWhitelistAdmin",
      "outputs": [],
      "payable": false,
      "stateMutability": "nonpayable",
      "type": "function"
    },
    {
      "constant": false,
      "inputs": [
        {
          "name": "account",
          "type": "address"
        }
      ],
      "name": "addWhitelistAdmin",
      "outputs": [],
      "payable": false,
      "stateMutability": "nonpayable",
      "type": "function"
    },
    {
      "constant": true,
      "inputs": [
        {
          "name": "account",
          "type": "address"
        }
      ],
      "name": "isWhitelistAdmin",
      "outputs": [
        {
          "name": "",
          "type": "bool"
        }
      ],
      "payable": false,
      "stateMutability": "view",
      "type": "function"
    },
    {
      "inputs": [
        {
          "name": "_admin",
          "type": "address"
        }
      ],
      "payable": false,
      "stateMutability": "nonpayable",
      "type": "constructor"
    },
    {
      "payable": true,
      "stateMutability": "payable",
      "type": "fallback"
    },
    {
      "anonymous": false,
      "inputs": [
        {
          "indexed": false,
          "name": "_amount",
          "type": "uint256"
        },
        {
          "indexed": false,
          "name": "_from",
          "type": "address"
        },
        {
          "indexed": false,
          "name": "_message",
          "type": "string"
        }
      ],
      "name": "recivedDonation",
      "type": "event"
    },
    {
      "anonymous": false,
      "inputs": [
        {
          "indexed": false,
          "name": "_pat",
          "type": "address"
        },
        {
          "indexed": false,
          "name": "_prac",
          "type": "address"
        },
        {
          "indexed": false,
          "name": "_chw",
          "type": "address"
        },
        {
          "indexed": false,
          "name": "_patAmount",
          "type": "uint256"
        },
        {
          "indexed": false,
          "name": "_practAmount",
          "type": "uint256"
        },
        {
          "indexed": false,
          "name": "_chwAmount",
          "type": "uint256"
        }
      ],
      "name": "payoutRecord",
      "type": "event"
    },
    {
      "anonymous": false,
      "inputs": [
        {
          "indexed": true,
          "name": "account",
          "type": "address"
        }
      ],
      "name": "WhitelistAdminAdded",
      "type": "event"
    },
    {
      "anonymous": false,
      "inputs": [
        {
          "indexed": true,
          "name": "account",
          "type": "address"
        }
      ],
      "name": "WhitelistAdminRemoved",
      "type": "event"
    },
    {
      "constant": false,
      "inputs": [
        {
          "name": "_registry",
          "type": "address"
        }
      ],
      "name": "init",
      "outputs": [],
      "payable": false,
      "stateMutability": "nonpayable",
      "type": "function"
    },
    {
      "constant": false,
      "inputs": [
        {
          "name": "_message",
          "type": "string"
        }
      ],
      "name": "donateFunds",
      "outputs": [],
      "payable": true,
      "stateMutability": "payable",
      "type": "function"
    },
    {
      "constant": false,
      "inputs": [
        {
          "name": "_patient",
          "type": "address"
        },
        {
          "name": "_practitioner",
          "type": "address"
        },
        {
          "name": "_CHW",
          "type": "address"
        },
        {
          "name": "_patientAmount",
          "type": "uint256"
        },
        {
          "name": "_practitionerAmount",
          "type": "uint256"
        },
        {
          "name": "_CHWAmount",
          "type": "uint256"
        }
      ],
      "name": "payout",
      "outputs": [],
      "payable": false,
      "stateMutability": "nonpayable",
      "type": "function"
    },
    {
      "constant": false,
      "inputs": [],
      "name": "kill",
      "outputs": [],
      "payable": false,
      "stateMutability": "nonpayable",
      "type": "function"
    },
    {
      "constant": true,
      "inputs": [],
      "name": "isAlive",
      "outputs": [
        {
          "name": "",
          "type": "bool"
        }
      ],
      "payable": false,
      "stateMutability": "view",
      "type": "function"
    },
    {
      "constant": true,
      "inputs": [],
      "name": "balance",
      "outputs": [
        {
          "name": "",
          "type": "uint256"
        }
      ],
      "payable": false,
      "stateMutability": "view",
      "type": "function"
    }
  ],
  "bytecode": "0x608060405234801561001057600080fd5b50604051610f59380380610f598339818101604052602081101561003357600080fd5b5051610047336001600160e01b0361007216565b600180546001600160a01b0390921661010002610100600160a81b03199092169190911790556101e6565b61008a8160006100c160201b610b3f1790919060201c565b6040516001600160a01b038216907f22380c05984257a1cb900161c713dd71d39e74820f1aea43bd3f1bdd2096129990600090a250565b6100d482826001600160e01b0361016516565b1561014057604080517f08c379a000000000000000000000000000000000000000000000000000000000815260206004820152601f60248201527f526f6c65733a206163636f756e7420616c72656164792068617320726f6c6500604482015290519081900360640190fd5b6001600160a01b0316600090815260209190915260409020805460ff19166001179055565b60006001600160a01b0382166101c6576040517f08c379a0000000000000000000000000000000000000000000000000000000008152600401808060200182810382526022815260200180610f376022913960400191505060405180910390fd5b506001600160a01b03166000908152602091909152604090205460ff1690565b610d42806101f56000396000f3fe6080604052600436106100865760003560e01c80634c5a628c116100595780634c5a628c146101bd5780637362d9c8146101d2578063b50a84d414610205578063b69ef8a814610275578063bb5f747b1461029c57610086565b806319ab453c146100f5578063347246271461012a5780634136aa351461017f57806341c0e1b5146101a8575b604080513481523360208201526060818301819052601a908201527f66616c6c6261636b2066756e6374696f6e20646f6e6174696f6e000000000000608082015290517f7730b84bb2adbda7873d2ec825c1674b7d44b3a97c7fe0c5fff70b8124264d279181900360a00190a1005b34801561010157600080fd5b506101286004803603602081101561011857600080fd5b50356001600160a01b03166102cf565b005b34801561013657600080fd5b50610128600480360360c081101561014d57600080fd5b506001600160a01b03813581169160208101358216916040820135169060608101359060808101359060a0013561034e565b34801561018b57600080fd5b506101946107ec565b604080519115158252519081900360200190f35b3480156101b457600080fd5b506101286107f5565b3480156101c957600080fd5b5061012861088c565b3480156101de57600080fd5b50610128600480360360208110156101f557600080fd5b50356001600160a01b0316610897565b6101286004803603602081101561021b57600080fd5b81019060208101813564010000000081111561023657600080fd5b82018360208201111561024857600080fd5b8035906020019184600183028401116401000000008311171561026a57600080fd5b5090925090506108e7565b34801561028157600080fd5b5061028a6109c4565b60408051918252519081900360200190f35b3480156102a857600080fd5b50610194600480360360208110156102bf57600080fd5b50356001600160a01b03166109c9565b6102d8336109c9565b6103135760405162461bcd60e51b8152600401808060200182810382526040815260200180610c9e6040913960400191505060405180910390fd5b6002805473ffffffffffffffffffffffffffffffffffffffff19166001600160a01b03929092169190911790556001805460ff191681179055565b60025460408051632782085160e01b815233600482015290516001600160a01b0390921691632782085191602480820192602092909190829003018186803b15801561039957600080fd5b505afa1580156103ad573d6000803e3d6000fd5b505050506040513d60208110156103c357600080fd5b505160ff166001148061044f575060025460408051632782085160e01b815233600482015290516001600160a01b0390921691632782085191602480820192602092909190829003018186803b15801561041c57600080fd5b505afa158015610430573d6000803e3d6000fd5b505050506040513d602081101561044657600080fd5b505160ff166002145b61048a5760405162461bcd60e51b8152600401808060200182810382526035815260200180610c1e6035913960400191505060405180910390fd5b60015460ff166104e1576040805162461bcd60e51b815260206004820152601760248201527f546865207661756c74206973206e6f7420616374697665000000000000000000604482015290519081900360640190fd5b30318383018201818111156105275760405162461bcd60e51b8152600401808060200182810382526030815260200180610cde6030913960400191505060405180910390fd5b600254604080516328bc95e960e11b81526001600160a01b038b81166004830152915191909216916351792bd2916024808301926020929190829003018186803b15801561057457600080fd5b505afa158015610588573d6000803e3d6000fd5b505050506040513d602081101561059e57600080fd5b505180156106215750600254604080516328bc95e960e11b81526001600160a01b038a81166004830152915191909216916351792bd2916024808301926020929190829003018186803b1580156105f457600080fd5b505afa158015610608573d6000803e3d6000fd5b505050506040513d602081101561061e57600080fd5b50515b80156106a25750600254604080516328bc95e960e11b81526001600160a01b038981166004830152915191909216916351792bd2916024808301926020929190829003018186803b15801561067557600080fd5b505afa158015610689573d6000803e3d6000fd5b505050506040513d602081101561069f57600080fd5b50515b6106dd5760405162461bcd60e51b8152600401808060200182810382526029815260200180610c536029913960400191505060405180910390fd5b6040516001600160a01b0389169086156108fc029087906000818181858888f19350505050158015610713573d6000803e3d6000fd5b506040516001600160a01b0388169085156108fc029086906000818181858888f1935050505015801561074a573d6000803e3d6000fd5b506040516001600160a01b0387169084156108fc029085906000818181858888f19350505050158015610781573d6000803e3d6000fd5b50604080516001600160a01b03808b168252808a166020830152881681830152606081018790526080810186905260a0810185905290517f6655ac5043caee4d077e2054543f1ad9883ec984f88eaf91571dc4c042a871d29181900360c00190a15050505050505050565b60015460ff1690565b60015461010090046001600160a01b031633146108435760405162461bcd60e51b815260040180806020018281038252603c815260200180610bc1603c913960400191505060405180910390fd5b6001805460ff191690556003546040513031916001600160a01b03169082156108fc029083906000818181858888f19350505050158015610888573d6000803e3d6000fd5b5050565b610895336109e1565b565b6108a0336109c9565b6108db5760405162461bcd60e51b8152600401808060200182810382526040815260200180610c9e6040913960400191505060405180910390fd5b6108e481610a29565b50565b60015460ff1661093e576040805162461bcd60e51b815260206004820152601760248201527f546865207661756c74206973206e6f7420616374697665000000000000000000604482015290519081900360640190fd5b7f7730b84bb2adbda7873d2ec825c1674b7d44b3a97c7fe0c5fff70b8124264d273433848460405180858152602001846001600160a01b03166001600160a01b03168152602001806020018281038252848482818152602001925080828437600083820152604051601f909101601f191690920182900397509095505050505050a15050565b303190565b60006109db818363ffffffff610a7116565b92915050565b6109f260008263ffffffff610ad816565b6040516001600160a01b038216907f0a8eb35e5ca14b3d6f28e4abf2f128dbab231a58b56e89beb5d636115001e16590600090a250565b610a3a60008263ffffffff610b3f16565b6040516001600160a01b038216907f22380c05984257a1cb900161c713dd71d39e74820f1aea43bd3f1bdd2096129990600090a250565b60006001600160a01b038216610ab85760405162461bcd60e51b8152600401808060200182810382526022815260200180610c7c6022913960400191505060405180910390fd5b506001600160a01b03166000908152602091909152604090205460ff1690565b610ae28282610a71565b610b1d5760405162461bcd60e51b8152600401808060200182810382526021815260200180610bfd6021913960400191505060405180910390fd5b6001600160a01b0316600090815260209190915260409020805460ff19169055565b610b498282610a71565b15610b9b576040805162461bcd60e51b815260206004820152601f60248201527f526f6c65733a206163636f756e7420616c72656164792068617320726f6c6500604482015290519081900360640190fd5b6001600160a01b0316600090815260209190915260409020805460ff1916600117905556fe5065726d697373696f6e2064656e6965642c206f6e6c792061646d696e20636f6e74726163742063616e207573652066756e6374696f6e616c697479526f6c65733a206163636f756e7420646f6573206e6f74206861766520726f6c655573657220646f6573206e6f74206861766520636f7272656374207065726d697373696f6e7320746f206d616b65207061796f75745265766572742c2061207573657220696e20746865207061796f75742077617320696e616374697665526f6c65733a206163636f756e7420697320746865207a65726f206164647265737357686974656c69737441646d696e526f6c653a2063616c6c657220646f6573206e6f742068617665207468652057686974656c69737441646d696e20726f6c65496e737566696369656e742062616c616e636520696e207661756c7420746f20636f6d706c65617465207061796f7574a265627a7a723058201bd3f3fb933b288a98af62b6a7216314752cb0c26cfec4bb25f4b9c6e5e3eb1c64736f6c634300050a0032526f6c65733a206163636f756e7420697320746865207a65726f2061646472657373",
  "source": "pragma solidity 0.5.10;\n\nimport { IVault } from \"./IVault.sol\";\nimport { IRegistry } from \"../Registry/IRegistry.sol\";\nimport { IAdmin } from \"../AdminDAO/IAdmin.sol\";\nimport { WhitelistAdminRole } from \"../Support/WhitelistAdminRole.sol\";\nimport { SafeMath } from \"../Support/math/SafeMath.sol\";\n\ncontract Vault is IVault, WhitelistAdminRole {\n    using SafeMath for uint256;\n    \n    // The active state of the contract\n    bool internal _active;\n    // The admin of the admin contract\n    IAdmin internal _adminInstance;\n    // The contract instance of the registry\n    IRegistry internal _registryInstance;\n    // Creator address\n    address payable internal _creator;\n\n    event recivedDonation(uint256 _amount, address _from, string _message);\n    event payoutRecord(address _pat, address _prac, address _chw, uint256 _patAmount, uint256 _practAmount, uint256 _chwAmount);\n\n    constructor(\n        address _admin\n    )\n        public\n        WhitelistAdminRole()\n    {\n        _adminInstance = IAdmin(_admin);\n    }\n\n    /**\n      * @dev Ensures that only the admin contract/admin can use functions\n      */\n    modifier isActive() {\n        require(\n            _active,\n            \"The vault is not active\"\n        );\n        _;\n    }\n\n    modifier onlyAdminContract() {\n        require(\n            msg.sender == address(_adminInstance),\n            \"Permission denied, only admin contract can use functionality\"\n        );\n        _;\n    }\n\n    modifier onlyAdminsAndCHW() {\n        require(\n            _registryInstance.getUserRole(msg.sender) == 1 ||\n            _registryInstance.getUserRole(msg.sender) == 2,\n            \"User does not have correct permissions to make payout\"\n        );\n        _;\n    }\n\n    /**\n      * @dev This allows admin addresses/contract to update/set the address\n      *      of the vault contract\n      */\n    function init(address _registry) external onlyWhitelistAdmin() {\n        _registryInstance = IRegistry(_registry);\n        _active = true;\n    }\n\n    /**\n      * @notice Allows the vault to receive funds from the admin contract. This\n      *         will mint tokens that will be owned by the vault until they are\n      *         spent as payouts.\n      */\n    function donateFunds(string calldata _message) external payable isActive() {\n        emit recivedDonation(msg.value, msg.sender, _message);\n    }\n\n    function payout(\n        address payable _patient,\n        address payable _practitioner,\n        address payable _CHW,\n        uint256 _patientAmount,\n        uint256 _practitionerAmount,\n        uint256 _CHWAmount\n    )\n        external\n        onlyAdminsAndCHW()\n        isActive()\n    {\n        uint256 balance = address(this).balance;\n\n        uint256 _totalTransfer = _patientAmount + _practitionerAmount + _CHWAmount;\n        \n        require(\n            _totalTransfer <= balance,\n            \"Insuficient balance in vault to compleate payout\"\n        );\n        require(\n            _registryInstance.verifyPayout(_patient) &&\n            _registryInstance.verifyPayout(_practitioner) &&\n            _registryInstance.verifyPayout(_CHW)\n            ,\"Revert, a user in the payout was inactive\"\n        );\n\n        _patient.transfer(_patientAmount);\n        _practitioner.transfer(_practitionerAmount);\n        _CHW.transfer(_CHWAmount);\n\n        emit payoutRecord(_patient, _practitioner, _CHW, _patientAmount, _practitionerAmount, _CHWAmount);\n    }\n\n    /**\n      * @notice Allows the admin contract to kill the vault. This will make the\n      *         vault send all collateral to the admin contract owner, as well\n      *         as burn all remaining tokens.\n      */\n    function kill() external onlyAdminContract() {\n        _active = false;\n\n        uint256 balance = address(this).balance;\n        _creator.transfer(balance);\n    }\n\n    /**\n      * @return bool : If the contract is currently active.\n      */\n    function isAlive() external view returns(bool) {\n        return _active;\n    }\n\n    function balance() external view returns(uint256) {\n        return address(this).balance;\n    }\n\n    function() external payable {\n        emit recivedDonation(msg.value, msg.sender, \"fallback function donation\");\n    }\n}",
  "sourcePath": "/Users/chris/Projects/IncentivesAlpha/Blockchain/contracts/Vault/Vault.sol",
  "compiler": {
    "name": "solc",
    "version": "0.5.10+commit.5a6ea5b1.Emscripten.clang",
    "optimizer": true,
    "runs": 500
  },
  "schemaVersion": "2.2.0",
  "updatedAt": "2019-10-22T17:03:42.469Z"
}